{
  "contractName": "P2PLending",
  "abi": [
    {
      "constant": true,
      "inputs": [
        {
          "name": "",
          "type": "address"
        }
      ],
      "name": "investor",
      "outputs": [
        {
          "name": "investorPublicKey",
          "type": "address"
        },
        {
          "name": "firstName",
          "type": "string"
        },
        {
          "name": "lastName",
          "type": "string"
        },
        {
          "name": "accountBalance",
          "type": "uint256"
        },
        {
          "name": "numInvestments",
          "type": "uint256"
        },
        {
          "name": "investorId",
          "type": "uint256"
        },
        {
          "name": "EXISTS",
          "type": "bool"
        }
      ],
      "payable": false,
      "stateMutability": "view",
      "type": "function",
      "signature": "0x1b1cd4ff"
    },
    {
      "constant": true,
      "inputs": [
        {
          "name": "",
          "type": "uint256"
        }
      ],
      "name": "loan",
      "outputs": [
        {
          "name": "loanDescription",
          "type": "string"
        },
        {
          "name": "loanID",
          "type": "uint256"
        },
        {
          "name": "loanDuration",
          "type": "uint256"
        },
        {
          "name": "totalAmount",
          "type": "uint256"
        },
        {
          "name": "amountFunded",
          "type": "uint256"
        },
        {
          "name": "interestRate",
          "type": "uint256"
        },
        {
          "name": "numFunders",
          "type": "uint256"
        },
        {
          "name": "EXISTS",
          "type": "bool"
        },
        {
          "name": "fundedStatus",
          "type": "bool"
        }
      ],
      "payable": false,
      "stateMutability": "view",
      "type": "function",
      "signature": "0x365a5306"
    },
    {
      "constant": true,
      "inputs": [
        {
          "name": "",
          "type": "uint256"
        }
      ],
      "name": "investors",
      "outputs": [
        {
          "name": "investorPublicKey",
          "type": "address"
        },
        {
          "name": "firstName",
          "type": "string"
        },
        {
          "name": "lastName",
          "type": "string"
        },
        {
          "name": "accountBalance",
          "type": "uint256"
        },
        {
          "name": "numInvestments",
          "type": "uint256"
        },
        {
          "name": "investorId",
          "type": "uint256"
        },
        {
          "name": "EXISTS",
          "type": "bool"
        }
      ],
      "payable": false,
      "stateMutability": "view",
      "type": "function",
      "signature": "0x3feb5f2b"
    },
    {
      "constant": true,
      "inputs": [
        {
          "name": "",
          "type": "uint256"
        }
      ],
      "name": "borrowerToOwner",
      "outputs": [
        {
          "name": "",
          "type": "address"
        }
      ],
      "payable": false,
      "stateMutability": "view",
      "type": "function",
      "signature": "0x4d602477"
    },
    {
      "constant": true,
      "inputs": [
        {
          "name": "",
          "type": "uint256"
        }
      ],
      "name": "loanToBorrowerAddress",
      "outputs": [
        {
          "name": "",
          "type": "address"
        }
      ],
      "payable": false,
      "stateMutability": "view",
      "type": "function",
      "signature": "0x510c67b6"
    },
    {
      "constant": true,
      "inputs": [
        {
          "name": "",
          "type": "uint256"
        }
      ],
      "name": "borrowers",
      "outputs": [
        {
          "name": "borrowerPublicKey",
          "type": "address"
        },
        {
          "name": "firstName",
          "type": "string"
        },
        {
          "name": "lastName",
          "type": "string"
        },
        {
          "name": "accountBalance",
          "type": "uint256"
        },
        {
          "name": "numLoans",
          "type": "uint256"
        },
        {
          "name": "borrowerId",
          "type": "uint256"
        },
        {
          "name": "EXISTS",
          "type": "bool"
        }
      ],
      "payable": false,
      "stateMutability": "view",
      "type": "function",
      "signature": "0x7924d93f"
    },
    {
      "constant": true,
      "inputs": [
        {
          "name": "",
          "type": "address"
        }
      ],
      "name": "borrowerNumLoans",
      "outputs": [
        {
          "name": "",
          "type": "uint256"
        }
      ],
      "payable": false,
      "stateMutability": "view",
      "type": "function",
      "signature": "0x8a0e7412"
    },
    {
      "constant": true,
      "inputs": [
        {
          "name": "",
          "type": "uint256"
        },
        {
          "name": "",
          "type": "uint256"
        }
      ],
      "name": "loanIdToFundingAmounts",
      "outputs": [
        {
          "name": "",
          "type": "uint256"
        }
      ],
      "payable": false,
      "stateMutability": "view",
      "type": "function",
      "signature": "0x9151fab6"
    },
    {
      "constant": true,
      "inputs": [
        {
          "name": "",
          "type": "address"
        }
      ],
      "name": "investorNumInvestments",
      "outputs": [
        {
          "name": "",
          "type": "uint256"
        }
      ],
      "payable": false,
      "stateMutability": "view",
      "type": "function",
      "signature": "0x9d1c09ec"
    },
    {
      "constant": true,
      "inputs": [
        {
          "name": "",
          "type": "uint256"
        },
        {
          "name": "",
          "type": "uint256"
        }
      ],
      "name": "invesorsOnLoan",
      "outputs": [
        {
          "name": "investorPublicKey",
          "type": "address"
        },
        {
          "name": "firstName",
          "type": "string"
        },
        {
          "name": "lastName",
          "type": "string"
        },
        {
          "name": "accountBalance",
          "type": "uint256"
        },
        {
          "name": "numInvestments",
          "type": "uint256"
        },
        {
          "name": "investorId",
          "type": "uint256"
        },
        {
          "name": "EXISTS",
          "type": "bool"
        }
      ],
      "payable": false,
      "stateMutability": "view",
      "type": "function",
      "signature": "0xb03ca9b9"
    },
    {
      "constant": true,
      "inputs": [
        {
          "name": "",
          "type": "uint256"
        }
      ],
      "name": "loanToBorrower",
      "outputs": [
        {
          "name": "borrowerPublicKey",
          "type": "address"
        },
        {
          "name": "firstName",
          "type": "string"
        },
        {
          "name": "lastName",
          "type": "string"
        },
        {
          "name": "accountBalance",
          "type": "uint256"
        },
        {
          "name": "numLoans",
          "type": "uint256"
        },
        {
          "name": "borrowerId",
          "type": "uint256"
        },
        {
          "name": "EXISTS",
          "type": "bool"
        }
      ],
      "payable": false,
      "stateMutability": "view",
      "type": "function",
      "signature": "0xbdada8a5"
    },
    {
      "constant": true,
      "inputs": [
        {
          "name": "",
          "type": "address"
        }
      ],
      "name": "borrower",
      "outputs": [
        {
          "name": "borrowerPublicKey",
          "type": "address"
        },
        {
          "name": "firstName",
          "type": "string"
        },
        {
          "name": "lastName",
          "type": "string"
        },
        {
          "name": "accountBalance",
          "type": "uint256"
        },
        {
          "name": "numLoans",
          "type": "uint256"
        },
        {
          "name": "borrowerId",
          "type": "uint256"
        },
        {
          "name": "EXISTS",
          "type": "bool"
        }
      ],
      "payable": false,
      "stateMutability": "view",
      "type": "function",
      "signature": "0xbdf78ba6"
    },
    {
      "constant": true,
      "inputs": [
        {
          "name": "",
          "type": "uint256"
        }
      ],
      "name": "investorToOwner",
      "outputs": [
        {
          "name": "",
          "type": "address"
        }
      ],
      "payable": false,
      "stateMutability": "view",
      "type": "function",
      "signature": "0xd56b7631"
    },
    {
      "constant": true,
      "inputs": [
        {
          "name": "",
          "type": "uint256"
        }
      ],
      "name": "loans",
      "outputs": [
        {
          "name": "loanDescription",
          "type": "string"
        },
        {
          "name": "loanID",
          "type": "uint256"
        },
        {
          "name": "loanDuration",
          "type": "uint256"
        },
        {
          "name": "totalAmount",
          "type": "uint256"
        },
        {
          "name": "amountFunded",
          "type": "uint256"
        },
        {
          "name": "interestRate",
          "type": "uint256"
        },
        {
          "name": "numFunders",
          "type": "uint256"
        },
        {
          "name": "EXISTS",
          "type": "bool"
        },
        {
          "name": "fundedStatus",
          "type": "bool"
        }
      ],
      "payable": false,
      "stateMutability": "view",
      "type": "function",
      "signature": "0xe1ec3c68"
    },
    {
      "constant": true,
      "inputs": [
        {
          "name": "",
          "type": "address"
        },
        {
          "name": "",
          "type": "uint256"
        }
      ],
      "name": "loansOnInvestor",
      "outputs": [
        {
          "name": "loanDescription",
          "type": "string"
        },
        {
          "name": "loanID",
          "type": "uint256"
        },
        {
          "name": "loanDuration",
          "type": "uint256"
        },
        {
          "name": "totalAmount",
          "type": "uint256"
        },
        {
          "name": "amountFunded",
          "type": "uint256"
        },
        {
          "name": "interestRate",
          "type": "uint256"
        },
        {
          "name": "numFunders",
          "type": "uint256"
        },
        {
          "name": "EXISTS",
          "type": "bool"
        },
        {
          "name": "fundedStatus",
          "type": "bool"
        }
      ],
      "payable": false,
      "stateMutability": "view",
      "type": "function",
      "signature": "0xe56a1479"
    },
    {
      "constant": false,
      "inputs": [
        {
          "name": "_firstName",
          "type": "string"
        },
        {
          "name": "_lastName",
          "type": "string"
        },
        {
          "name": "_accountBalance",
          "type": "uint256"
        }
      ],
      "name": "createBorrower",
      "outputs": [],
      "payable": false,
      "stateMutability": "nonpayable",
      "type": "function",
      "signature": "0xf73d3c8b"
    },
    {
      "constant": false,
      "inputs": [
        {
          "name": "_firstName",
          "type": "string"
        },
        {
          "name": "_lastName",
          "type": "string"
        },
        {
          "name": "_accountBalance",
          "type": "uint256"
        }
      ],
      "name": "createInvestor",
      "outputs": [],
      "payable": false,
      "stateMutability": "nonpayable",
      "type": "function",
      "signature": "0xd4fb2b34"
    },
    {
      "constant": false,
      "inputs": [
        {
          "name": "_loanDetails",
          "type": "string"
        },
        {
          "name": "_loanDuration",
          "type": "uint256"
        },
        {
          "name": "_totalAmount",
          "type": "uint256"
        },
        {
          "name": "_amountFunded",
          "type": "uint256"
        },
        {
          "name": "_interestRate",
          "type": "uint256"
        }
      ],
      "name": "createLoan",
      "outputs": [],
      "payable": false,
      "stateMutability": "nonpayable",
      "type": "function",
      "signature": "0x3016e99d"
    },
    {
      "constant": false,
      "inputs": [
        {
          "name": "_loanId",
          "type": "uint256"
        },
        {
          "name": "_fundingAmount",
          "type": "uint256"
        }
      ],
      "name": "fundLoan",
      "outputs": [],
      "payable": false,
      "stateMutability": "nonpayable",
      "type": "function",
      "signature": "0xf4512bb6"
    },
    {
      "constant": true,
      "inputs": [
        {
          "name": "_loanId",
          "type": "uint256"
        },
        {
          "name": "_investorId",
          "type": "uint256"
        }
      ],
      "name": "getInvestorFundingAmount",
      "outputs": [
        {
          "name": "",
          "type": "uint256"
        }
      ],
      "payable": false,
      "stateMutability": "view",
      "type": "function",
      "signature": "0x2b640b67"
    },
    {
      "constant": true,
      "inputs": [
        {
          "name": "_loanId",
          "type": "uint256"
        }
      ],
      "name": "getFundingAmounts",
      "outputs": [
        {
          "name": "",
          "type": "uint256[]"
        }
      ],
      "payable": false,
      "stateMutability": "view",
      "type": "function",
      "signature": "0x7489cad4"
    },
    {
      "constant": false,
      "inputs": [
        {
          "name": "_loanId",
          "type": "uint256"
        },
        {
          "name": "_investorId",
          "type": "uint256"
        },
        {
          "name": "_fundingAmount",
          "type": "uint256"
        }
      ],
      "name": "changeFundingAmounts",
      "outputs": [],
      "payable": false,
      "stateMutability": "nonpayable",
      "type": "function",
      "signature": "0xaa2a57bb"
    },
    {
      "constant": true,
      "inputs": [
        {
          "name": "_loanId",
          "type": "uint256"
        }
      ],
      "name": "getLoanInvestors",
      "outputs": [
        {
          "name": "",
          "type": "address[]"
        }
      ],
      "payable": false,
      "stateMutability": "view",
      "type": "function",
      "signature": "0xb1d50fb9"
    },
    {
      "constant": true,
      "inputs": [
        {
          "name": "_loanId",
          "type": "uint256"
        }
      ],
      "name": "getLoanInvestorsIds",
      "outputs": [
        {
          "name": "",
          "type": "uint256[]"
        }
      ],
      "payable": false,
      "stateMutability": "view",
      "type": "function",
      "signature": "0xc7446842"
    },
    {
      "constant": true,
      "inputs": [
        {
          "name": "_investorId",
          "type": "uint256"
        }
      ],
      "name": "getInvestorsLoan",
      "outputs": [
        {
          "name": "",
          "type": "uint256[]"
        }
      ],
      "payable": false,
      "stateMutability": "view",
      "type": "function",
      "signature": "0xf77280af"
    },
    {
      "constant": true,
      "inputs": [
        {
          "name": "a",
          "type": "uint256"
        },
        {
          "name": "b",
          "type": "uint256"
        },
        {
          "name": "precision",
          "type": "uint256"
        }
      ],
      "name": "calcul",
      "outputs": [
        {
          "name": "",
          "type": "uint256"
        }
      ],
      "payable": false,
      "stateMutability": "pure",
      "type": "function",
      "signature": "0x6fe2df87"
    },
    {
      "constant": false,
      "inputs": [
        {
          "name": "_investorId",
          "type": "uint256"
        },
        {
          "name": "_loanId",
          "type": "uint256"
        },
        {
          "name": "paybackAmount",
          "type": "uint256"
        }
      ],
      "name": "_paybackInvestor",
      "outputs": [],
      "payable": false,
      "stateMutability": "nonpayable",
      "type": "function",
      "signature": "0xb810e50e"
    },
    {
      "constant": true,
      "inputs": [
        {
          "name": "account",
          "type": "address"
        }
      ],
      "name": "isInvestor",
      "outputs": [
        {
          "name": "",
          "type": "bool"
        }
      ],
      "payable": false,
      "stateMutability": "view",
      "type": "function",
      "signature": "0xcee2a9cf"
    },
    {
      "constant": true,
      "inputs": [
        {
          "name": "account",
          "type": "address"
        }
      ],
      "name": "isBorrower",
      "outputs": [
        {
          "name": "",
          "type": "bool"
        }
      ],
      "payable": false,
      "stateMutability": "view",
      "type": "function",
      "signature": "0xeaf6e483"
    },
    {
      "constant": true,
      "inputs": [
        {
          "name": "_id",
          "type": "uint256"
        }
      ],
      "name": "isLoan",
      "outputs": [
        {
          "name": "",
          "type": "bool"
        }
      ],
      "payable": false,
      "stateMutability": "view",
      "type": "function",
      "signature": "0x1ed726ce"
    }
  ],
  "bytecode": "0x608060405234801561001057600080fd5b506142b8806100206000396000f3fe608060405260043610610180576000357c0100000000000000000000000000000000000000000000000000000000900463ffffffff1680631b1cd4ff146101855780631ed726ce1461030e5780632b640b67146103615780633016e99d146103ba578063365a5306146104aa5780633feb5f2b1461059e5780634d60247714610711578063510c67b61461078c5780636fe2df87146108075780637489cad41461086a5780637924d93f146108fa5780638a0e741214610a6d5780639151fab614610ad25780639d1c09ec14610b2b578063aa2a57bb14610b90578063b03ca9b914610bdf578063b1d50fb914610d5c578063b810e50e14610dec578063bdada8a514610e3b578063bdf78ba614610fae578063c744684214611137578063cee2a9cf146111c7578063d4fb2b3414611230578063d56b763114611399578063e1ec3c6814611414578063e56a147914611508578063eaf6e4831461161c578063f4512bb614611685578063f73d3c8b146116ca578063f77280af14611833575b600080fd5b34801561019157600080fd5b506101d4600480360360208110156101a857600080fd5b81019080803573ffffffffffffffffffffffffffffffffffffffff1690602001909291905050506118c3565b604051808873ffffffffffffffffffffffffffffffffffffffff1673ffffffffffffffffffffffffffffffffffffffff168152602001806020018060200187815260200186815260200185815260200184151515158152602001838103835289818151815260200191508051906020019080838360005b8381101561026657808201518184015260208101905061024b565b50505050905090810190601f1680156102935780820380516001836020036101000a031916815260200191505b50838103825288818151815260200191508051906020019080838360005b838110156102cc5780820151818401526020810190506102b1565b50505050905090810190601f1680156102f95780820380516001836020036101000a031916815260200191505b50995050505050505050505060405180910390f35b34801561031a57600080fd5b506103476004803603602081101561033157600080fd5b8101908080359060200190929190505050611a62565b604051808215151515815260200191505060405180910390f35b34801561036d57600080fd5b506103a46004803603604081101561038457600080fd5b810190808035906020019092919080359060200190929190505050611a8f565b6040518082815260200191505060405180910390f35b3480156103c657600080fd5b506104a8600480360360a08110156103dd57600080fd5b81019080803590602001906401000000008111156103fa57600080fd5b82018360208201111561040c57600080fd5b8035906020019184600183028401116401000000008311171561042e57600080fd5b91908080601f016020809104026020016040519081016040528093929190818152602001838380828437600081840152601f19601f82011690508083019250505050505050919291929080359060200190929190803590602001909291908035906020019092919080359060200190929190505050611b23565b005b3480156104b657600080fd5b506104e3600480360360208110156104cd57600080fd5b8101908080359060200190929190505050611f31565b60405180806020018a8152602001898152602001888152602001878152602001868152602001858152602001841515151581526020018315151515815260200182810382528b818151815260200191508051906020019080838360005b8381101561055b578082015181840152602081019050610540565b50505050905090810190601f1680156105885780820380516001836020036101000a031916815260200191505b509a505050505050505050505060405180910390f35b3480156105aa57600080fd5b506105d7600480360360208110156105c157600080fd5b8101908080359060200190929190505050612031565b604051808873ffffffffffffffffffffffffffffffffffffffff1673ffffffffffffffffffffffffffffffffffffffff168152602001806020018060200187815260200186815260200185815260200184151515158152602001838103835289818151815260200191508051906020019080838360005b8381101561066957808201518184015260208101905061064e565b50505050905090810190601f1680156106965780820380516001836020036101000a031916815260200191505b50838103825288818151815260200191508051906020019080838360005b838110156106cf5780820151818401526020810190506106b4565b50505050905090810190601f1680156106fc5780820380516001836020036101000a031916815260200191505b50995050505050505050505060405180910390f35b34801561071d57600080fd5b5061074a6004803603602081101561073457600080fd5b81019080803590602001909291905050506121df565b604051808273ffffffffffffffffffffffffffffffffffffffff1673ffffffffffffffffffffffffffffffffffffffff16815260200191505060405180910390f35b34801561079857600080fd5b506107c5600480360360208110156107af57600080fd5b8101908080359060200190929190505050612212565b604051808273ffffffffffffffffffffffffffffffffffffffff1673ffffffffffffffffffffffffffffffffffffffff16815260200191505060405180910390f35b34801561081357600080fd5b506108546004803603606081101561082a57600080fd5b81019080803590602001909291908035906020019092919080359060200190929190505050612245565b6040518082815260200191505060405180910390f35b34801561087657600080fd5b506108a36004803603602081101561088d57600080fd5b8101908080359060200190929190505050612261565b6040518080602001828103825283818151815260200191508051906020019060200280838360005b838110156108e65780820151818401526020810190506108cb565b505050509050019250505060405180910390f35b34801561090657600080fd5b506109336004803603602081101561091d57600080fd5b810190808035906020019092919050505061233e565b604051808873ffffffffffffffffffffffffffffffffffffffff1673ffffffffffffffffffffffffffffffffffffffff168152602001806020018060200187815260200186815260200185815260200184151515158152602001838103835289818151815260200191508051906020019080838360005b838110156109c55780820151818401526020810190506109aa565b50505050905090810190601f1680156109f25780820380516001836020036101000a031916815260200191505b50838103825288818151815260200191508051906020019080838360005b83811015610a2b578082015181840152602081019050610a10565b50505050905090810190601f168015610a585780820380516001836020036101000a031916815260200191505b50995050505050505050505060405180910390f35b348015610a7957600080fd5b50610abc60048036036020811015610a9057600080fd5b81019080803573ffffffffffffffffffffffffffffffffffffffff1690602001909291905050506124ec565b6040518082815260200191505060405180910390f35b348015610ade57600080fd5b50610b1560048036036040811015610af557600080fd5b810190808035906020019092919080359060200190929190505050612504565b6040518082815260200191505060405180910390f35b348015610b3757600080fd5b50610b7a60048036036020811015610b4e57600080fd5b81019080803573ffffffffffffffffffffffffffffffffffffffff169060200190929190505050612534565b6040518082815260200191505060405180910390f35b348015610b9c57600080fd5b50610bdd60048036036060811015610bb357600080fd5b8101908080359060200190929190803590602001909291908035906020019092919050505061254c565b005b348015610beb57600080fd5b50610c2260048036036040811015610c0257600080fd5b81019080803590602001909291908035906020019092919050505061264d565b604051808873ffffffffffffffffffffffffffffffffffffffff1673ffffffffffffffffffffffffffffffffffffffff168152602001806020018060200187815260200186815260200185815260200184151515158152602001838103835289818151815260200191508051906020019080838360005b83811015610cb4578082015181840152602081019050610c99565b50505050905090810190601f168015610ce15780820380516001836020036101000a031916815260200191505b50838103825288818151815260200191508051906020019080838360005b83811015610d1a578082015181840152602081019050610cff565b50505050905090810190601f168015610d475780820380516001836020036101000a031916815260200191505b50995050505050505050505060405180910390f35b348015610d6857600080fd5b50610d9560048036036020811015610d7f57600080fd5b8101908080359060200190929190505050612808565b6040518080602001828103825283818151815260200191508051906020019060200280838360005b83811015610dd8578082015181840152602081019050610dbd565b505050509050019250505060405180910390f35b348015610df857600080fd5b50610e3960048036036060811015610e0f57600080fd5b8101908080359060200190929190803590602001909291908035906020019092919050505061293a565b005b348015610e4757600080fd5b50610e7460048036036020811015610e5e57600080fd5b8101908080359060200190929190505050612a27565b604051808873ffffffffffffffffffffffffffffffffffffffff1673ffffffffffffffffffffffffffffffffffffffff168152602001806020018060200187815260200186815260200185815260200184151515158152602001838103835289818151815260200191508051906020019080838360005b83811015610f06578082015181840152602081019050610eeb565b50505050905090810190601f168015610f335780820380516001836020036101000a031916815260200191505b50838103825288818151815260200191508051906020019080838360005b83811015610f6c578082015181840152602081019050610f51565b50505050905090810190601f168015610f995780820380516001836020036101000a031916815260200191505b50995050505050505050505060405180910390f35b348015610fba57600080fd5b50610ffd60048036036020811015610fd157600080fd5b81019080803573ffffffffffffffffffffffffffffffffffffffff169060200190929190505050612bc6565b604051808873ffffffffffffffffffffffffffffffffffffffff1673ffffffffffffffffffffffffffffffffffffffff168152602001806020018060200187815260200186815260200185815260200184151515158152602001838103835289818151815260200191508051906020019080838360005b8381101561108f578082015181840152602081019050611074565b50505050905090810190601f1680156110bc5780820380516001836020036101000a031916815260200191505b50838103825288818151815260200191508051906020019080838360005b838110156110f55780820151818401526020810190506110da565b50505050905090810190601f1680156111225780820380516001836020036101000a031916815260200191505b50995050505050505050505060405180910390f35b34801561114357600080fd5b506111706004803603602081101561115a57600080fd5b8101908080359060200190929190505050612d65565b6040518080602001828103825283818151815260200191508051906020019060200280838360005b838110156111b3578082015181840152602081019050611198565b505050509050019250505060405180910390f35b3480156111d357600080fd5b50611216600480360360208110156111ea57600080fd5b81019080803573ffffffffffffffffffffffffffffffffffffffff169060200190929190505050612e49565b604051808215151515815260200191505060405180910390f35b34801561123c57600080fd5b506113976004803603606081101561125357600080fd5b810190808035906020019064010000000081111561127057600080fd5b82018360208201111561128257600080fd5b803590602001918460018302840111640100000000831117156112a457600080fd5b91908080601f016020809104026020016040519081016040528093929190818152602001838380828437600081840152601f19601f8201169050808301925050505050505091929192908035906020019064010000000081111561130757600080fd5b82018360208201111561131957600080fd5b8035906020019184600183028401116401000000008311171561133b57600080fd5b91908080601f016020809104026020016040519081016040528093929190818152602001838380828437600081840152601f19601f82011690508083019250505050505050919291929080359060200190929190505050612ea2565b005b3480156113a557600080fd5b506113d2600480360360208110156113bc57600080fd5b8101908080359060200190929190505050613171565b604051808273ffffffffffffffffffffffffffffffffffffffff1673ffffffffffffffffffffffffffffffffffffffff16815260200191505060405180910390f35b34801561142057600080fd5b5061144d6004803603602081101561143757600080fd5b81019080803590602001909291905050506131a4565b60405180806020018a8152602001898152602001888152602001878152602001868152602001858152602001841515151581526020018315151515815260200182810382528b818151815260200191508051906020019080838360005b838110156114c55780820151818401526020810190506114aa565b50505050905090810190601f1680156114f25780820380516001836020036101000a031916815260200191505b509a505050505050505050505060405180910390f35b34801561151457600080fd5b506115616004803603604081101561152b57600080fd5b81019080803573ffffffffffffffffffffffffffffffffffffffff169060200190929190803590602001909291905050506132b3565b60405180806020018a8152602001898152602001888152602001878152602001868152602001858152602001841515151581526020018315151515815260200182810382528b818151815260200191508051906020019080838360005b838110156115d95780820151818401526020810190506115be565b50505050905090810190601f1680156116065780820380516001836020036101000a031916815260200191505b509a505050505050505050505060405180910390f35b34801561162857600080fd5b5061166b6004803603602081101561163f57600080fd5b81019080803573ffffffffffffffffffffffffffffffffffffffff1690602001909291905050506133cf565b604051808215151515815260200191505060405180910390f35b34801561169157600080fd5b506116c8600480360360408110156116a857600080fd5b810190808035906020019092919080359060200190929190505050613428565b005b3480156116d657600080fd5b50611831600480360360608110156116ed57600080fd5b810190808035906020019064010000000081111561170a57600080fd5b82018360208201111561171c57600080fd5b8035906020019184600183028401116401000000008311171561173e57600080fd5b91908080601f016020809104026020016040519081016040528093929190818152602001838380828437600081840152601f19601f820116905080830192505050505050509192919290803590602001906401000000008111156117a157600080fd5b8201836020820111156117b357600080fd5b803590602001918460018302840111640100000000831117156117d557600080fd5b91908080601f016020809104026020016040519081016040528093929190818152602001838380828437600081840152601f19601f82011690508083019250505050505050919291929080359060200190929190505050613bf2565b005b34801561183f57600080fd5b5061186c6004803603602081101561185657600080fd5b8101908080359060200190929190505050613ec1565b6040518080602001828103825283818151815260200191508051906020019060200280838360005b838110156118af578082015181840152602081019050611894565b505050509050019250505060405180910390f35b60106020528060005260406000206000915090508060000160009054906101000a900473ffffffffffffffffffffffffffffffffffffffff1690806001018054600181600116156101000203166002900480601f0160208091040260200160405190810160405280929190818152602001828054600181600116156101000203166002900480156119955780601f1061196a57610100808354040283529160200191611995565b820191906000526020600020905b81548152906001019060200180831161197857829003601f168201915b505050505090806002018054600181600116156101000203166002900480601f016020809104026020016040519081016040528092919081815260200182805460018160011615610100020316600290048015611a335780601f10611a0857610100808354040283529160200191611a33565b820191906000526020600020905b815481529060010190602001808311611a1657829003601f168201915b5050505050908060030154908060040154908060050154908060060160009054906101000a900460ff16905087565b60006013600083815260200190815260200160002060070160009054906101000a900460ff169050919050565b60006060611a9c84612d65565b90506060611aa985612261565b905060008090506000600190505b835181111515611b1857858483815181101515611ad057fe5b906020019060200201511415611b03578282815181101515611aee57fe5b90602001906020020151945050505050611b1d565b81806001019250508080600101915050611ab7565b505050505b92915050565b611b2c336133cf565b1515611b3757600080fd5b611b3f614063565b6101206040519081016040528087815260200160045481526020018681526020018581526020018481526020018381526020016000815260200160011515815260200160001515815250905060046000815480929190600101919050555060006001600a83908060018154018082558091505090600182039060005260206000209060080201600090919290919091506000820151816000019080519060200190611beb9291906140b4565b506020820151816001015560408201518160020155606082015181600301556080820151816004015560a0820151816005015560c0820151816006015560e08201518160070160006101000a81548160ff0219169083151502179055506101008201518160070160016101000a81548160ff0219169083151502179055505050039050336011600083815260200190815260200160002060006101000a81548173ffffffffffffffffffffffffffffffffffffffff021916908373ffffffffffffffffffffffffffffffffffffffff160217905550600f60003373ffffffffffffffffffffffffffffffffffffffff1673ffffffffffffffffffffffffffffffffffffffff168152602001908152602001600020601260008381526020019081526020016000206000820160009054906101000a900473ffffffffffffffffffffffffffffffffffffffff168160000160006101000a81548173ffffffffffffffffffffffffffffffffffffffff021916908373ffffffffffffffffffffffffffffffffffffffff16021790555060018201816001019080546001816001161561010002031660029004611da0929190614134565b5060028201816002019080546001816001161561010002031660029004611dc8929190614134565b506003820154816003015560048201548160040155600582015481600501556006820160009054906101000a900460ff168160060160006101000a81548160ff021916908315150217905550905050600b60003373ffffffffffffffffffffffffffffffffffffffff1673ffffffffffffffffffffffffffffffffffffffff16815260200190815260200160002060008154809291906001019190505550600080815480929190600101919050555081601360008381526020019081526020016000206000820151816000019080519060200190611ea79291906140b4565b506020820151816001015560408201518160020155606082015181600301556080820151816004015560a0820151816005015560c0820151816006015560e08201518160070160006101000a81548160ff0219169083151502179055506101008201518160070160016101000a81548160ff02191690831515021790555090505050505050505050565b6013602052806000526040600020600091509050806000018054600181600116156101000203166002900480601f016020809104026020016040519081016040528092919081815260200182805460018160011615610100020316600290048015611fdd5780601f10611fb257610100808354040283529160200191611fdd565b820191906000526020600020905b815481529060010190602001808311611fc057829003601f168201915b5050505050908060010154908060020154908060030154908060040154908060050154908060060154908060070160009054906101000a900460ff16908060070160019054906101000a900460ff16905089565b60088181548110151561204057fe5b90600052602060002090600702016000915090508060000160009054906101000a900473ffffffffffffffffffffffffffffffffffffffff1690806001018054600181600116156101000203166002900480601f0160208091040260200160405190810160405280929190818152602001828054600181600116156101000203166002900480156121125780601f106120e757610100808354040283529160200191612112565b820191906000526020600020905b8154815290600101906020018083116120f557829003601f168201915b505050505090806002018054600181600116156101000203166002900480601f0160208091040260200160405190810160405280929190818152602001828054600181600116156101000203166002900480156121b05780601f10612185576101008083540402835291602001916121b0565b820191906000526020600020905b81548152906001019060200180831161219357829003601f168201915b5050505050908060030154908060040154908060050154908060060160009054906101000a900460ff16905087565b600d6020528060005260406000206000915054906101000a900473ffffffffffffffffffffffffffffffffffffffff1681565b60116020528060005260406000206000915054906101000a900473ffffffffffffffffffffffffffffffffffffffff1681565b60008282600a0a850281151561225757fe5b0490509392505050565b60608060166000848152602001908152602001600020805490506040519080825280602002602001820160405280156122a95781602001602082028038833980820191505090505b50905060008090506000600190505b6016600086815260200190815260200160002080549050811115156123335760166000868152602001908152602001600020828154811015156122f757fe5b9060005260206000200154838381518110151561231057fe5b9060200190602002018181525050818060010192505080806001019150506122b8565b508192505050919050565b60098181548110151561234d57fe5b90600052602060002090600702016000915090508060000160009054906101000a900473ffffffffffffffffffffffffffffffffffffffff1690806001018054600181600116156101000203166002900480601f01602080910402602001604051908101604052809291908181526020018280546001816001161561010002031660029004801561241f5780601f106123f45761010080835404028352916020019161241f565b820191906000526020600020905b81548152906001019060200180831161240257829003601f168201915b505050505090806002018054600181600116156101000203166002900480601f0160208091040260200160405190810160405280929190818152602001828054600181600116156101000203166002900480156124bd5780601f10612492576101008083540402835291602001916124bd565b820191906000526020600020905b8154815290600101906020018083116124a057829003601f168201915b5050505050908060030154908060040154908060050154908060060160009054906101000a900460ff16905087565b600b6020528060005260406000206000915090505481565b60166020528160005260406000208181548110151561251f57fe5b90600052602060002001600091509150505481565b600c6020528060005260406000206000915090505481565b606061255784612d65565b905060008090506000600190505b8251811115156126455784838381518110151561257e57fe5b9060200190602002015114156126305760166000878152602001908152602001600020828154811015156125ae57fe5b9060005260206000200154841015156125f657600060166000888152602001908152602001600020838154811015156125e357fe5b906000526020600020018190555061262f565b83601660008881526020019081526020016000208381548110151561261757fe5b90600052602060002001600082825403925050819055505b5b81806001019250508080600101915050612565565b505050505050565b60146020528160005260406000208181548110151561266857fe5b9060005260206000209060070201600091509150508060000160009054906101000a900473ffffffffffffffffffffffffffffffffffffffff1690806001018054600181600116156101000203166002900480601f01602080910402602001604051908101604052809291908181526020018280546001816001161561010002031660029004801561273b5780601f106127105761010080835404028352916020019161273b565b820191906000526020600020905b81548152906001019060200180831161271e57829003601f168201915b505050505090806002018054600181600116156101000203166002900480601f0160208091040260200160405190810160405280929190818152602001828054600181600116156101000203166002900480156127d95780601f106127ae576101008083540402835291602001916127d9565b820191906000526020600020905b8154815290600101906020018083116127bc57829003601f168201915b5050505050908060030154908060040154908060050154908060060160009054906101000a900460ff16905087565b60608060146000848152602001908152602001600020805490506040519080825280602002602001820160405280156128505781602001602082028038833980820191505090505b50905060008090506000600190505b60146000868152602001908152602001600020805490508111151561292f57601460008681526020019081526020016000208281548110151561289e57fe5b906000526020600020906007020160000160009054906101000a900473ffffffffffffffffffffffffffffffffffffffff1683838151811015156128de57fe5b9060200190602002019073ffffffffffffffffffffffffffffffffffffffff16908173ffffffffffffffffffffffffffffffffffffffff16815250508180600101925050808060010191505061285f565b508192505050919050565b61294382611a62565b151561294e57600080fd5b6000600f60003373ffffffffffffffffffffffffffffffffffffffff1673ffffffffffffffffffffffffffffffffffffffff1681526020019081526020016000206003015490508181101515156129a457600080fd5b816008858154811015156129b457fe5b90600052602060002090600702016003016000828254019250508190555081600960126000868152602001908152602001600020600501548154811015156129f857fe5b906000526020600020906007020160030160008282540392505081905550612a2183858461254c565b50505050565b60126020528060005260406000206000915090508060000160009054906101000a900473ffffffffffffffffffffffffffffffffffffffff1690806001018054600181600116156101000203166002900480601f016020809104026020016040519081016040528092919081815260200182805460018160011615610100020316600290048015612af95780601f10612ace57610100808354040283529160200191612af9565b820191906000526020600020905b815481529060010190602001808311612adc57829003601f168201915b505050505090806002018054600181600116156101000203166002900480601f016020809104026020016040519081016040528092919081815260200182805460018160011615610100020316600290048015612b975780601f10612b6c57610100808354040283529160200191612b97565b820191906000526020600020905b815481529060010190602001808311612b7a57829003601f168201915b5050505050908060030154908060040154908060050154908060060160009054906101000a900460ff16905087565b600f6020528060005260406000206000915090508060000160009054906101000a900473ffffffffffffffffffffffffffffffffffffffff1690806001018054600181600116156101000203166002900480601f016020809104026020016040519081016040528092919081815260200182805460018160011615610100020316600290048015612c985780601f10612c6d57610100808354040283529160200191612c98565b820191906000526020600020905b815481529060010190602001808311612c7b57829003601f168201915b505050505090806002018054600181600116156101000203166002900480601f016020809104026020016040519081016040528092919081815260200182805460018160011615610100020316600290048015612d365780601f10612d0b57610100808354040283529160200191612d36565b820191906000526020600020905b815481529060010190602001808311612d1957829003601f168201915b5050505050908060030154908060040154908060050154908060060160009054906101000a900460ff16905087565b6060806014600084815260200190815260200160002080549050604051908082528060200260200182016040528015612dad5781602001602082028038833980820191505090505b50905060008090506000600190505b601460008681526020019081526020016000208054905081111515612e3e576014600086815260200190815260200160002082815481101515612dfb57fe5b9060005260206000209060070201600501548383815181101515612e1b57fe5b906020019060200201818152505081806001019250508080600101915050612dbc565b508192505050919050565b6000601060008373ffffffffffffffffffffffffffffffffffffffff1673ffffffffffffffffffffffffffffffffffffffff16815260200190815260200160002060060160009054906101000a900460ff169050919050565b612eaa6141bb565b60e0604051908101604052803373ffffffffffffffffffffffffffffffffffffffff168152602001858152602001848152602001838152602001600081526020016006548152602001600115158152509050600660008154809291906001019190505550600060016008839080600181540180825580915050906001820390600052602060002090600702016000909192909190915060008201518160000160006101000a81548173ffffffffffffffffffffffffffffffffffffffff021916908373ffffffffffffffffffffffffffffffffffffffff1602179055506020820151816001019080519060200190612fa39291906140b4565b506040820151816002019080519060200190612fc09291906140b4565b50606082015181600301556080820151816004015560a0820151816005015560c08201518160060160006101000a81548160ff021916908315150217905550505003905033600e600083815260200190815260200160002060006101000a81548173ffffffffffffffffffffffffffffffffffffffff021916908373ffffffffffffffffffffffffffffffffffffffff16021790555081601060003373ffffffffffffffffffffffffffffffffffffffff1673ffffffffffffffffffffffffffffffffffffffff16815260200190815260200160002060008201518160000160006101000a81548173ffffffffffffffffffffffffffffffffffffffff021916908373ffffffffffffffffffffffffffffffffffffffff16021790555060208201518160010190805190602001906130f99291906140b4565b5060408201518160020190805190602001906131169291906140b4565b50606082015181600301556080820151816004015560a0820151816005015560c08201518160060160006101000a81548160ff0219169083151502179055509050506002600081548092919060010191905055505050505050565b600e6020528060005260406000206000915054906101000a900473ffffffffffffffffffffffffffffffffffffffff1681565b600a818154811015156131b357fe5b9060005260206000209060080201600091509050806000018054600181600116156101000203166002900480601f01602080910402602001604051908101604052809291908181526020018280546001816001161561010002031660029004801561325f5780601f106132345761010080835404028352916020019161325f565b820191906000526020600020905b81548152906001019060200180831161324257829003601f168201915b5050505050908060010154908060020154908060030154908060040154908060050154908060060154908060070160009054906101000a900460ff16908060070160019054906101000a900460ff16905089565b6015602052816000526040600020818154811015156132ce57fe5b906000526020600020906008020160009150915050806000018054600181600116156101000203166002900480601f01602080910402602001604051908101604052809291908181526020018280546001816001161561010002031660029004801561337b5780601f106133505761010080835404028352916020019161337b565b820191906000526020600020905b81548152906001019060200180831161335e57829003601f168201915b5050505050908060010154908060020154908060030154908060040154908060050154908060060154908060070160009054906101000a900460ff16908060070160019054906101000a900460ff16905089565b6000600f60008373ffffffffffffffffffffffffffffffffffffffff1673ffffffffffffffffffffffffffffffffffffffff16815260200190815260200160002060060160009054906101000a900460ff169050919050565b61343182611a62565b151561343c57600080fd5b61344533612e49565b151561345057600080fd5b80601060003373ffffffffffffffffffffffffffffffffffffffff1673ffffffffffffffffffffffffffffffffffffffff16815260200190815260200160002060030154101515156134a157600080fd5b601360008381526020019081526020016000206004015460136000848152602001908152602001600020600301540381111515156134de57600080fd5b600015156013600084815260200190815260200160002060070160019054906101000a900460ff16151514151561351457600080fd5b80601360008481526020019081526020016000206004016000828254019250508190555080600a8381548110151561354857fe5b906000526020600020906008020160040160008282540192505081905550600160136000848152602001908152602001600020600601600082825401925050819055506001600a8381548110151561359c57fe5b9060005260206000209060080201600601600082825401925050819055506013600083815260200190815260200160002060030154601360008481526020019081526020016000206004015414156136575760016013600084815260200190815260200160002060070160016101000a81548160ff0219169083151502179055506001600a8381548110151561362e57fe5b906000526020600020906008020160070160016101000a81548160ff0219169083151502179055505b60146000838152602001908152602001600020601060003373ffffffffffffffffffffffffffffffffffffffff1673ffffffffffffffffffffffffffffffffffffffff168152602001908152602001600020908060018154018082558091505090600182039060005260206000209060070201600090919290919091506000820160009054906101000a900473ffffffffffffffffffffffffffffffffffffffff168160000160006101000a81548173ffffffffffffffffffffffffffffffffffffffff021916908373ffffffffffffffffffffffffffffffffffffffff16021790555060018201816001019080546001816001161561010002031660029004613762929190614134565b506002820181600201908054600181600116156101000203166002900461378a929190614134565b506003820154816003015560048201548160040155600582015481600501556006820160009054906101000a900460ff168160060160006101000a81548160ff021916908315150217905550505050601560003373ffffffffffffffffffffffffffffffffffffffff1673ffffffffffffffffffffffffffffffffffffffff16815260200190815260200160002060136000848152602001908152602001600020908060018154018082558091505090600182039060005260206000209060080201600090919290919091506000820181600001908054600181600116156101000203166002900461387d929190614134565b506001820154816001015560028201548160020155600382015481600301556004820154816004015560058201548160050155600682015481600601556007820160009054906101000a900460ff168160070160006101000a81548160ff0219169083151502179055506007820160019054906101000a900460ff168160070160016101000a81548160ff021916908315150217905550505050600c60003373ffffffffffffffffffffffffffffffffffffffff1673ffffffffffffffffffffffffffffffffffffffff16815260200190815260200160002060008154809291906001019190505550601060003373ffffffffffffffffffffffffffffffffffffffff1673ffffffffffffffffffffffffffffffffffffffff168152602001908152602001600020600401600081548092919060010191905055506008601060003373ffffffffffffffffffffffffffffffffffffffff1673ffffffffffffffffffffffffffffffffffffffff16815260200190815260200160002060050154815481101515613a0957fe5b90600052602060002090600702016004016000815480929190600101919050555080601060003373ffffffffffffffffffffffffffffffffffffffff1673ffffffffffffffffffffffffffffffffffffffff16815260200190815260200160002060030160008282540392505081905550806008601060003373ffffffffffffffffffffffffffffffffffffffff1673ffffffffffffffffffffffffffffffffffffffff16815260200190815260200160002060050154815481101515613acc57fe5b90600052602060002090600702016003016000828254039250508190555080600f60006011600086815260200190815260200160002060009054906101000a900473ffffffffffffffffffffffffffffffffffffffff1673ffffffffffffffffffffffffffffffffffffffff1673ffffffffffffffffffffffffffffffffffffffff168152602001908152602001600020600301600082825401925050819055508060096012600085815260200190815260200160002060050154815481101515613b9357fe5b906000526020600020906007020160030160008282540192505081905550601660008381526020019081526020016000208190806001815401808255809150509060018203906000526020600020016000909192909190915055505050565b613bfa614211565b60e0604051908101604052803373ffffffffffffffffffffffffffffffffffffffff168152602001858152602001848152602001838152602001600081526020016005548152602001600115158152509050600560008154809291906001019190505550600060016009839080600181540180825580915050906001820390600052602060002090600702016000909192909190915060008201518160000160006101000a81548173ffffffffffffffffffffffffffffffffffffffff021916908373ffffffffffffffffffffffffffffffffffffffff1602179055506020820151816001019080519060200190613cf39291906140b4565b506040820151816002019080519060200190613d109291906140b4565b50606082015181600301556080820151816004015560a0820151816005015560c08201518160060160006101000a81548160ff021916908315150217905550505003905033600d600083815260200190815260200160002060006101000a81548173ffffffffffffffffffffffffffffffffffffffff021916908373ffffffffffffffffffffffffffffffffffffffff16021790555081600f60003373ffffffffffffffffffffffffffffffffffffffff1673ffffffffffffffffffffffffffffffffffffffff16815260200190815260200160002060008201518160000160006101000a81548173ffffffffffffffffffffffffffffffffffffffff021916908373ffffffffffffffffffffffffffffffffffffffff1602179055506020820151816001019080519060200190613e499291906140b4565b506040820151816002019080519060200190613e669291906140b4565b50606082015181600301556080820151816004015560a0820151816005015560c08201518160060160006101000a81548160ff0219169083151502179055509050506001600081548092919060010191905055505050505050565b60606000600e600084815260200190815260200160002060009054906101000a900473ffffffffffffffffffffffffffffffffffffffff1690506060601560008373ffffffffffffffffffffffffffffffffffffffff1673ffffffffffffffffffffffffffffffffffffffff16815260200190815260200160002080549050604051908082528060200260200182016040528015613f6e5781602001602082028038833980820191505090505b50905060008090506000600190505b601560008573ffffffffffffffffffffffffffffffffffffffff1673ffffffffffffffffffffffffffffffffffffffff168152602001908152602001600020805490508111151561405757601560008573ffffffffffffffffffffffffffffffffffffffff1673ffffffffffffffffffffffffffffffffffffffff1681526020019081526020016000208281548110151561401457fe5b906000526020600020906008020160010154838381518110151561403457fe5b906020019060200201818152505081806001019250508080600101915050613f7d565b50819350505050919050565b61012060405190810160405280606081526020016000815260200160008152602001600081526020016000815260200160008152602001600081526020016000151581526020016000151581525090565b828054600181600116156101000203166002900490600052602060002090601f016020900481019282601f106140f557805160ff1916838001178555614123565b82800160010185558215614123579182015b82811115614122578251825591602001919060010190614107565b5b5090506141309190614267565b5090565b828054600181600116156101000203166002900490600052602060002090601f016020900481019282601f1061416d57805485556141aa565b828001600101855582156141aa57600052602060002091601f016020900482015b828111156141a957825482559160010191906001019061418e565b5b5090506141b79190614267565b5090565b60e060405190810160405280600073ffffffffffffffffffffffffffffffffffffffff16815260200160608152602001606081526020016000815260200160008152602001600081526020016000151581525090565b60e060405190810160405280600073ffffffffffffffffffffffffffffffffffffffff16815260200160608152602001606081526020016000815260200160008152602001600081526020016000151581525090565b61428991905b8082111561428557600081600090555060010161426d565b5090565b9056fea165627a7a72305820d3ebcb993a31c531733ee6a3cd9e1ca3e508764a7f4cd21d82fdfd96d13d70020029",
  "source": "//Write your own contracts here. Currently compiles using solc v0.4.15+commit.bbb8e64f.\npragma solidity ^0.5.0;\n\ncontract P2PLending {\n  \n  //Global Counters for overall stats \n  uint totalNumLoans; \n  uint totalNumBorrowers; \n  uint totalNumInvestors; \n  uint totalNumFullyFundedLoans; \n  uint loanIDCounter; //Dynamically assign id in the loan Struct\n  uint borrowerIdCounter; //Dynamically assign id in the borrower Struct\n  uint investorIdCounter; //Dynamically assign id in the investor Struct\n  uint loanTrackerCounter; \n\n   //Arrays to hold all of our investors and borrowers and loans\n  Investor[] public investors; \n  Borrower[] public borrowers; \n  Loan[] public loans; \n  //LoanTracker[] public loantrackers; \n\n  //Mappings \n  mapping (address => uint) public borrowerNumLoans; //take a borrowerr address and get the number of loans they have in the marketplace\n  mapping (address => uint) public investorNumInvestments; //take an investor address and get the number of loans they are funding\n  mapping (uint => address) public borrowerToOwner; //take an id from our borrowers array and get the address of the borrower\n  mapping (uint => address) public investorToOwner; // take an id from our investors arrray and get the address of the investor\n  mapping (address => Borrower) public borrower; //take an address and get the Borrower struct\n  mapping (address => Investor) public investor; //take an address and get the investor struct\n  mapping (uint => address) public loanToBorrowerAddress; //take a loan id and get the Borrower address\n  mapping(uint => Borrower) public loanToBorrower; \n  mapping (uint => Loan) public loan; //take an id from the loan and get the loan information back\n  mapping(uint => Investor[]) public invesorsOnLoan; //search loan id and see all investors on it\n  //mapping(uint => uint[]) public investorAmounts; \n  mapping(address => Loan[]) public loansOnInvestor; //search investor and see all loans they have funded\n  //Structus for our Objects -- Investor, Borrower, Loan\n  mapping(uint => uint[]) public loanIdToFundingAmounts;//Take a loan id and get the payment amounts (how much investors put in/funded)\n \n  struct Investor {\n    address investorPublicKey; \n    string firstName; \n    string lastName; \n    uint accountBalance; \n    uint numInvestments; \n    uint investorId; \n    bool EXISTS; \n  }\n\n  struct Borrower { \n    address borrowerPublicKey;\n    string firstName; \n    string lastName; \n    uint accountBalance; \n    uint numLoans; \n    uint borrowerId; \n    bool EXISTS; \n  }\n\n  struct Loan { //ToDo: Add 2 arrrrays to the loan to track the investors on it and the amount they funded \n    string loanDescription;\n    uint loanID; \n    uint loanDuration;  \n    uint totalAmount; \n    uint amountFunded; \n    uint interestRate; \n    uint numFunders;\n    bool EXISTS; \n    bool fundedStatus; //false not funded, true is fully funded \n    //string[] investorAddresses; \n    //uint[] investorAmounts; \n  }\n\n  /*struct LoanTracker {  //Used to keep track of investors and the amounts on this loan once an investor has contributed\n    uint loanTrackerId; \n    uint loanId;   \n    address borrowerAddress; \n    uint borrowerId; \n    address[] investorAddresses;\n    uint[] investorIds; \n    uint[] investorAmounts; \n  } */\n\n\n\n  //Create Borrower, Lender, and Loan\n  function createBorrower(string memory _firstName, string memory _lastName, uint _accountBalance) public {\n    Borrower memory b  = Borrower(msg.sender, _firstName, _lastName, _accountBalance, 0, borrowerIdCounter, true);\n    borrowerIdCounter++; \n    uint id = borrowers.push(b) - 1;\n    borrowerToOwner[id] = msg.sender; \n    borrower[msg.sender] = b;\n    totalNumBorrowers++; \n  }\n\n  function createInvestor(string memory _firstName, string memory _lastName, uint _accountBalance) public {\n    Investor memory i = Investor(msg.sender, _firstName, _lastName, _accountBalance, 0, investorIdCounter, true);\n    investorIdCounter++; \n    uint id = investors.push(i) - 1;\n    investorToOwner[id] = msg.sender;\n    investor[msg.sender] = i;\n    totalNumInvestors++;  \n  }\n\n   function createLoan(string memory _loanDetails, uint _loanDuration, uint _totalAmount, uint _amountFunded, uint _interestRate) public {\n    //require (borrower[msg.sender].EXISTS == true); //Required to be a borrower to create a loan\n    //Require a Borrower profile to create a loan then push it to our loans arrat\n    require(isBorrower(msg.sender)); \n    Loan memory l = Loan(_loanDetails, loanIDCounter, _loanDuration, _totalAmount, _amountFunded, _interestRate, 0, true,false);\n    loanIDCounter++; \n    uint id = loans.push(l) - 1;\n    loanToBorrowerAddress[id] = msg.sender; //id of loan to address of the borrower addrress who created the loan\n    loanToBorrower[id] = borrower[msg.sender]; \n    borrowerNumLoans[msg.sender]++; //increment the number of loans that the borrower has crreated\n    totalNumLoans++; \n    loan[id] = l; \n  }\n\n  /*\n  A function to fund the loan. We take in a loan id and an amount to fund. \n  */\n  function fundLoan(uint _loanId, uint _fundingAmount) external {\n    require(isLoan(_loanId)); //check if loan exists \n    require(isInvestor(msg.sender)); //check if msg.sender is an investor account \n    require(investor[msg.sender].accountBalance >= _fundingAmount); //Make sure investor has enough money for funding the loan\n    require (_fundingAmount <= (loan[_loanId].totalAmount - loan[_loanId].amountFunded )); //make sure amount <= (loan amount - amount funded)\n    require(loan[_loanId].fundedStatus == false); //make sure the loan is not already funded \n    loan[_loanId].amountFunded += _fundingAmount; // increment the amount the loan has been funded\n    loans[_loanId].amountFunded += _fundingAmount; //change the funding amount in the loans structure\n    loan[_loanId].numFunders += 1; //increment how many investors are on this loan\n    loans[_loanId].numFunders += 1; //increment how many investors are on this loan\n    if (loan[_loanId].amountFunded == loan[_loanId].totalAmount) {\n      loan[_loanId].fundedStatus = true; // if the loan is fully funded change the status to true\n      loans[_loanId].fundedStatus = true; //if the loan is fully funded change the status to true\n    }\n\n    invesorsOnLoan[_loanId].push(investor[msg.sender]); //add the investor to the list -- for loan can see all investors\n    //investorAmounts[_loanId].push(_fundingAmount); //keep track of how much money the investor has invested in this loan\n    loansOnInvestor[msg.sender].push(loan[_loanId]); //Search investor and see all of their loans\n    \n    investorNumInvestments[msg.sender]++; //Increment the number of loans that have been funded for the investor\n    investor[msg.sender].numInvestments++; //incrementt the number of investments for the investor\n    investors[investor[msg.sender].investorId].numInvestments++; //incrementt the number of investments for the investor\n\n    //TODO: Make sure tomorrow when we fund a loan that the borrower gets the funding in their account and the investor gets reduction in funding\n    //Reduce the account Balance by the funding for the investor in both arrays \n    investor[msg.sender].accountBalance -= _fundingAmount; \n    investors[investor[msg.sender].investorId].accountBalance -= _fundingAmount; \n    //Increment Borrower account balance by the funding in both global arrays \n    borrower[loanToBorrowerAddress[_loanId]].accountBalance += _fundingAmount;\n    borrowers[loanToBorrower[_loanId].borrowerId].accountBalance += _fundingAmount; \n\n    loanIdToFundingAmounts[_loanId].push(_fundingAmount); //keep track of funding amounts on loan\n\n   //Add the details of the funding to the loan tracker \n   /*\n   if (loan[_loanId].numFunders <= 1){\n     //First time creation of loantracker \n     address[] memory first_address;\n     first_address.push(loanToBorrowerAddress[_loanId]); \n     uint[] memory first_investorId; \n     first_investorId.push(investor[msg.sender].investorId); \n     uint[] memory first_investorAmount = [_fundingAmount]; \n     //uint[] memory empty_arr = new uint[];\n     LoanTracker lt = LoanTracker(loanTrackerCounter, _loanId, loanToBorrowerAddress[_loanId], loanToBorrower[_loanId].borrowerId, first_address, first_investorId, first_investorAmount); \n\n     loanTrackerCounter++; \n   } else {\n\n   } */ \n   //if (loan[_loanId].)\n   //loanIdToLoanTracker[_loanId] = \n   //loanIdToLoanTracker\n\n  }\n\n  //function getInvestorFundingAmount(uint _loanId, address investorAddress) public view returns (uint) {\n    function getInvestorFundingAmount(uint _loanId, uint _investorId) public view returns (uint){\n    //address[] memory _loanInvestors = getLoanInvestors(_loanId);\n    uint[] memory _loanInvestors = getLoanInvestorsIds(_loanId); \n    uint[] memory _fundingAmounts = getFundingAmounts(_loanId);\n    uint counter = 0; \n    for (uint i= 1;  i<= _loanInvestors.length; i++) {\n      if (_loanInvestors[counter] == _investorId){ \n        return _fundingAmounts[counter]; \n      }\n      counter++;  \n\n    }\n  }\n\n  function getFundingAmounts(uint _loanId) public view returns (uint[] memory) {\n    uint[] memory loan_amounts = new uint[] (loanIdToFundingAmounts[_loanId].length);\n    uint counter = 0; \n    for (uint i= 1;  i<= loanIdToFundingAmounts[_loanId].length; i++) {\n      loan_amounts[counter]= loanIdToFundingAmounts[_loanId][counter]; \n      counter++;  \n    }\n    return loan_amounts; \n  }\n\n  function changeFundingAmounts(uint _loanId,uint _investorId, uint _fundingAmount) public {\n    //We need to change the funding amount when a loan is paid back\n    uint[]  memory _investorIds = getLoanInvestorsIds(_loanId);\n    //uint[] memory _fundingAmounts = getFundingAmounts(_loanId); \n    uint counter = 0;  \n    for (uint i=1; i<=_investorIds.length; i++) {\n      if (_investorIds[counter] == _investorId) {\n        if (_fundingAmount >= loanIdToFundingAmounts[_loanId][counter]) {\n          //_fundingAmount == loanIdToFundingAmounts[_loanId][counter]; \n          loanIdToFundingAmounts[_loanId][counter] = 0; \n        } else {\n        loanIdToFundingAmounts[_loanId][counter] -= _fundingAmount; \n        }\n      }\n      counter++; \n    }\n  }\n\n  function getLoanInvestors(uint _loanId) public view returns (address[] memory) {\n    //Pass in a loanId and see all investor addresses that are on it \n    address[] memory _investorsOnThisLoan = new address[](invesorsOnLoan[_loanId].length);\n    uint counter = 0; \n    for (uint i= 1;  i<= invesorsOnLoan[_loanId].length; i++) {\n      _investorsOnThisLoan[counter]= invesorsOnLoan[_loanId][counter].investorPublicKey; \n      counter++;  \n\n    }\n    return _investorsOnThisLoan; \n  }\n\n    function getLoanInvestorsIds(uint _loanId) public view returns (uint[] memory) {\n    //Pass in a loanId and see all investor addresses that are on it \n    uint[] memory _investorsOnThisLoan = new uint[](invesorsOnLoan[_loanId].length);\n    uint counter = 0; \n    for (uint i= 1;  i<= invesorsOnLoan[_loanId].length; i++) {\n      _investorsOnThisLoan[counter]= invesorsOnLoan[_loanId][counter].investorId; \n      counter++;  \n\n    }\n    return _investorsOnThisLoan; \n  }\n\n  function getInvestorsLoan(uint _investorId) public view returns (uint[] memory) {\n    //Pass in investorAddress and see all the different loanIds they have funded \n    address _investorAddress = investorToOwner[_investorId]; \n    uint[] memory _loansOnThisInvestor = new uint[](loansOnInvestor[_investorAddress].length);\n    uint counter = 0; \n    for (uint i= 1;  i<= loansOnInvestor[_investorAddress].length; i++) {\n      _loansOnThisInvestor[counter]= loansOnInvestor[_investorAddress][counter].loanID; \n      counter++; \n\n    }\n    return _loansOnThisInvestor; \n  }\n\n  function calcul(uint a, uint b, uint precision) public pure returns ( uint) {\n     return a*(10**precision)/b;\n    }\n\n  function _paybackInvestor(uint _investorId, uint _loanId, uint paybackAmount) public  {\n    //address _investorAddress = investorToOwner[_investorId]; \n    //require(isBorrower(msg.sender)); //check if loan exists \n    require(isLoan(_loanId));\n\n\n\n    uint borrower_balance = borrower[msg.sender].accountBalance;\n    //uint _loanAmount = getInvestorFundingAmount(_loanId, _investorAddress); \n    //uint _loanAmount = getInvestorFundingAmount(_loanId, _investorId); \n    //uint paybackAmount = _loanAmount + _loanAmount/100*loan[_loanId].interestRate; //*100/100.//calcul(loan[_loanId].interestRate,100,5)//(_loanAmount*(loan[_loanId].interestRate/100.0));\n    require(borrower_balance >= paybackAmount);  \n    \n    //investor[_investorAddress].accountBalance += paybackAmount; \n    investors[_investorId].accountBalance += paybackAmount;\n    //investors[investor[msg.sender].investorId].accountBalance += paybackAmount; \n    //Increment Borrower account balance by the funding in both global arrays \n    //borrower[loanToBorrowerAddress[_loanId]].accountBalance -= paybackAmount;\n    borrowers[loanToBorrower[_loanId].borrowerId].accountBalance -= paybackAmount; \n\n    changeFundingAmounts(_loanId,_investorId, paybackAmount); //change how much the investor is owed based on the paybackAmount from the borrower\n    }\n    //Make sure that the borrower exists\n    //Make sure that the borrower loan exists\n    //Get how much the investor invested into the loan\n    //Calculate the additional interest to payback \n    // \n\n  //Functions to tell us if an address is an investor/borrower\n  //Must have a borrower profile to create a loan \n  //Must have a lender profile to invest in a loan\n  function isInvestor(address account) public view returns (bool) {return investor[account].EXISTS;}\n  function isBorrower(address account) public view returns (bool) {return borrower[account].EXISTS;}\n  function isLoan(uint _id) public view returns (bool) {return loan[_id].EXISTS;}\n\n\n\n\n  //Toy example of adding to an array and printing it \n  /*string greeting = \"What's up dog\";\n  uint[] s; \n  uint s2 = s.push(1);\n  uint s3 = s.push(2);\n  uint s4 = s.push(3); \n  function sayHello() public view returns (uint[]) {\n    return s;\n    }\n\n  function addToS(uint num) public { \n    s.push(num); \n  }\n  //End of Toy Example\n  */\n}\n\n\n",
  "sourcePath": "/Users/adamlieberman/Projects/i8n-HIVE/contracts/p2p_contract.sol",
  "compiler": {
    "name": "solc",
    "version": "0.5.0+commit.1d4f565a.Emscripten.clang"
  },
  "schemaVersion": "3.0.1",
  "updatedAt": "2021-07-26T12:54:48.601Z",
  "devdoc": {
    "methods": {}
  },
  "userdoc": {
    "methods": {}
  }
}