{
  "contractName": "P2PTest",
  "abi": [
    {
      "constant": true,
      "inputs": [
        {
          "name": "",
          "type": "address"
        }
      ],
      "name": "BorrowerAddress2Id",
      "outputs": [
        {
          "name": "",
          "type": "uint256"
        }
      ],
      "payable": false,
      "stateMutability": "view",
      "type": "function",
      "signature": "0x19ea535a"
    },
    {
      "constant": true,
      "inputs": [
        {
          "name": "",
          "type": "address"
        }
      ],
      "name": "investor",
      "outputs": [
        {
          "name": "investorPublicKey",
          "type": "address"
        },
        {
          "name": "firstName",
          "type": "string"
        },
        {
          "name": "lastName",
          "type": "string"
        },
        {
          "name": "accountBalance",
          "type": "uint256"
        },
        {
          "name": "numInvestments",
          "type": "uint256"
        },
        {
          "name": "investorId",
          "type": "uint256"
        },
        {
          "name": "EXISTS",
          "type": "bool"
        }
      ],
      "payable": false,
      "stateMutability": "view",
      "type": "function",
      "signature": "0x1b1cd4ff"
    },
    {
      "constant": true,
      "inputs": [
        {
          "name": "",
          "type": "uint256"
        },
        {
          "name": "",
          "type": "uint256"
        }
      ],
      "name": "loanContractsOnLoanId",
      "outputs": [
        {
          "name": "borrowerPublicKey",
          "type": "address"
        },
        {
          "name": "investorPublicKey",
          "type": "address"
        },
        {
          "name": "originalInvestmentAmount",
          "type": "uint256"
        },
        {
          "name": "originalInvestmentAmountInvestor",
          "type": "uint256"
        },
        {
          "name": "currentPaybackAmount",
          "type": "uint256"
        },
        {
          "name": "interestRate",
          "type": "uint256"
        },
        {
          "name": "loanTerm",
          "type": "uint256"
        },
        {
          "name": "loanId",
          "type": "uint256"
        },
        {
          "name": "loanContractId",
          "type": "uint256"
        },
        {
          "name": "loanStartDate",
          "type": "string"
        },
        {
          "name": "shortDescription",
          "type": "string"
        },
        {
          "name": "loanDescription",
          "type": "string"
        }
      ],
      "payable": false,
      "stateMutability": "view",
      "type": "function",
      "signature": "0x1db58ad1"
    },
    {
      "constant": true,
      "inputs": [
        {
          "name": "",
          "type": "address"
        },
        {
          "name": "",
          "type": "uint256"
        }
      ],
      "name": "loansBorrowerHasCreated",
      "outputs": [
        {
          "name": "",
          "type": "uint256"
        }
      ],
      "payable": false,
      "stateMutability": "view",
      "type": "function",
      "signature": "0x2de0780e"
    },
    {
      "constant": true,
      "inputs": [
        {
          "name": "",
          "type": "uint256"
        },
        {
          "name": "",
          "type": "uint256"
        }
      ],
      "name": "investorsOnLoan",
      "outputs": [
        {
          "name": "",
          "type": "address"
        }
      ],
      "payable": false,
      "stateMutability": "view",
      "type": "function",
      "signature": "0x3511aed8"
    },
    {
      "constant": true,
      "inputs": [
        {
          "name": "",
          "type": "uint256"
        }
      ],
      "name": "investors",
      "outputs": [
        {
          "name": "investorPublicKey",
          "type": "address"
        },
        {
          "name": "firstName",
          "type": "string"
        },
        {
          "name": "lastName",
          "type": "string"
        },
        {
          "name": "accountBalance",
          "type": "uint256"
        },
        {
          "name": "numInvestments",
          "type": "uint256"
        },
        {
          "name": "investorId",
          "type": "uint256"
        },
        {
          "name": "EXISTS",
          "type": "bool"
        }
      ],
      "payable": false,
      "stateMutability": "view",
      "type": "function",
      "signature": "0x3feb5f2b"
    },
    {
      "constant": true,
      "inputs": [
        {
          "name": "",
          "type": "uint256"
        }
      ],
      "name": "borrowerToOwner",
      "outputs": [
        {
          "name": "",
          "type": "address"
        }
      ],
      "payable": false,
      "stateMutability": "view",
      "type": "function",
      "signature": "0x4d602477"
    },
    {
      "constant": true,
      "inputs": [
        {
          "name": "",
          "type": "uint256"
        },
        {
          "name": "",
          "type": "uint256"
        }
      ],
      "name": "investorsOnLoan2",
      "outputs": [
        {
          "name": "investorPublicKey",
          "type": "address"
        },
        {
          "name": "firstName",
          "type": "string"
        },
        {
          "name": "lastName",
          "type": "string"
        },
        {
          "name": "accountBalance",
          "type": "uint256"
        },
        {
          "name": "numInvestments",
          "type": "uint256"
        },
        {
          "name": "investorId",
          "type": "uint256"
        },
        {
          "name": "EXISTS",
          "type": "bool"
        }
      ],
      "payable": false,
      "stateMutability": "view",
      "type": "function",
      "signature": "0x56c41aed"
    },
    {
      "constant": true,
      "inputs": [
        {
          "name": "",
          "type": "uint256"
        }
      ],
      "name": "borrowers",
      "outputs": [
        {
          "name": "borrowerPublicKey",
          "type": "address"
        },
        {
          "name": "firstName",
          "type": "string"
        },
        {
          "name": "lastName",
          "type": "string"
        },
        {
          "name": "accountBalance",
          "type": "uint256"
        },
        {
          "name": "numLoans",
          "type": "uint256"
        },
        {
          "name": "borrowerId",
          "type": "uint256"
        },
        {
          "name": "EXISTS",
          "type": "bool"
        }
      ],
      "payable": false,
      "stateMutability": "view",
      "type": "function",
      "signature": "0x7924d93f"
    },
    {
      "constant": true,
      "inputs": [
        {
          "name": "",
          "type": "uint256"
        },
        {
          "name": "",
          "type": "uint256"
        }
      ],
      "name": "loanIdToFundingAmounts",
      "outputs": [
        {
          "name": "",
          "type": "uint256"
        }
      ],
      "payable": false,
      "stateMutability": "view",
      "type": "function",
      "signature": "0x9151fab6"
    },
    {
      "constant": true,
      "inputs": [
        {
          "name": "",
          "type": "address"
        }
      ],
      "name": "investorNumInvestments",
      "outputs": [
        {
          "name": "",
          "type": "uint256"
        }
      ],
      "payable": false,
      "stateMutability": "view",
      "type": "function",
      "signature": "0x9d1c09ec"
    },
    {
      "constant": true,
      "inputs": [
        {
          "name": "",
          "type": "uint256"
        }
      ],
      "name": "loancontracts",
      "outputs": [
        {
          "name": "borrowerPublicKey",
          "type": "address"
        },
        {
          "name": "investorPublicKey",
          "type": "address"
        },
        {
          "name": "originalInvestmentAmount",
          "type": "uint256"
        },
        {
          "name": "originalInvestmentAmountInvestor",
          "type": "uint256"
        },
        {
          "name": "currentPaybackAmount",
          "type": "uint256"
        },
        {
          "name": "interestRate",
          "type": "uint256"
        },
        {
          "name": "loanTerm",
          "type": "uint256"
        },
        {
          "name": "loanId",
          "type": "uint256"
        },
        {
          "name": "loanContractId",
          "type": "uint256"
        },
        {
          "name": "loanStartDate",
          "type": "string"
        },
        {
          "name": "shortDescription",
          "type": "string"
        },
        {
          "name": "loanDescription",
          "type": "string"
        }
      ],
      "payable": false,
      "stateMutability": "view",
      "type": "function",
      "signature": "0xa58fade1"
    },
    {
      "constant": true,
      "inputs": [
        {
          "name": "",
          "type": "address"
        }
      ],
      "name": "loan",
      "outputs": [
        {
          "name": "shortDescription",
          "type": "string"
        },
        {
          "name": "loanDescription",
          "type": "string"
        },
        {
          "name": "tag",
          "type": "string"
        },
        {
          "name": "startDate",
          "type": "string"
        },
        {
          "name": "loanId",
          "type": "uint256"
        },
        {
          "name": "loanDuration",
          "type": "uint256"
        },
        {
          "name": "totalAmount",
          "type": "uint256"
        },
        {
          "name": "amountFunded",
          "type": "uint256"
        },
        {
          "name": "interestRate",
          "type": "uint256"
        },
        {
          "name": "numFunders",
          "type": "uint256"
        },
        {
          "name": "EXISTS",
          "type": "bool"
        },
        {
          "name": "fundedStatus",
          "type": "bool"
        }
      ],
      "payable": false,
      "stateMutability": "view",
      "type": "function",
      "signature": "0xb5e2ebc6"
    },
    {
      "constant": true,
      "inputs": [
        {
          "name": "",
          "type": "address"
        }
      ],
      "name": "borrower",
      "outputs": [
        {
          "name": "borrowerPublicKey",
          "type": "address"
        },
        {
          "name": "firstName",
          "type": "string"
        },
        {
          "name": "lastName",
          "type": "string"
        },
        {
          "name": "accountBalance",
          "type": "uint256"
        },
        {
          "name": "numLoans",
          "type": "uint256"
        },
        {
          "name": "borrowerId",
          "type": "uint256"
        },
        {
          "name": "EXISTS",
          "type": "bool"
        }
      ],
      "payable": false,
      "stateMutability": "view",
      "type": "function",
      "signature": "0xbdf78ba6"
    },
    {
      "constant": true,
      "inputs": [
        {
          "name": "",
          "type": "uint256"
        }
      ],
      "name": "loanToOwner",
      "outputs": [
        {
          "name": "",
          "type": "address"
        }
      ],
      "payable": false,
      "stateMutability": "view",
      "type": "function",
      "signature": "0xc9e58cbd"
    },
    {
      "constant": true,
      "inputs": [
        {
          "name": "",
          "type": "uint256"
        }
      ],
      "name": "investorToOwner",
      "outputs": [
        {
          "name": "",
          "type": "address"
        }
      ],
      "payable": false,
      "stateMutability": "view",
      "type": "function",
      "signature": "0xd56b7631"
    },
    {
      "constant": true,
      "inputs": [
        {
          "name": "",
          "type": "uint256"
        }
      ],
      "name": "loans",
      "outputs": [
        {
          "name": "shortDescription",
          "type": "string"
        },
        {
          "name": "loanDescription",
          "type": "string"
        },
        {
          "name": "tag",
          "type": "string"
        },
        {
          "name": "startDate",
          "type": "string"
        },
        {
          "name": "loanId",
          "type": "uint256"
        },
        {
          "name": "loanDuration",
          "type": "uint256"
        },
        {
          "name": "totalAmount",
          "type": "uint256"
        },
        {
          "name": "amountFunded",
          "type": "uint256"
        },
        {
          "name": "interestRate",
          "type": "uint256"
        },
        {
          "name": "numFunders",
          "type": "uint256"
        },
        {
          "name": "EXISTS",
          "type": "bool"
        },
        {
          "name": "fundedStatus",
          "type": "bool"
        }
      ],
      "payable": false,
      "stateMutability": "view",
      "type": "function",
      "signature": "0xe1ec3c68"
    },
    {
      "constant": true,
      "inputs": [
        {
          "name": "",
          "type": "address"
        }
      ],
      "name": "LoanAddrerss2Id",
      "outputs": [
        {
          "name": "",
          "type": "uint256"
        }
      ],
      "payable": false,
      "stateMutability": "view",
      "type": "function",
      "signature": "0xe41ce526"
    },
    {
      "constant": true,
      "inputs": [
        {
          "name": "",
          "type": "address"
        },
        {
          "name": "",
          "type": "uint256"
        }
      ],
      "name": "loansOnInvestor",
      "outputs": [
        {
          "name": "",
          "type": "uint256"
        }
      ],
      "payable": false,
      "stateMutability": "view",
      "type": "function",
      "signature": "0xe56a1479"
    },
    {
      "constant": true,
      "inputs": [
        {
          "name": "",
          "type": "uint256"
        },
        {
          "name": "",
          "type": "uint256"
        }
      ],
      "name": "borrowersOnLoan",
      "outputs": [
        {
          "name": "",
          "type": "address"
        }
      ],
      "payable": false,
      "stateMutability": "view",
      "type": "function",
      "signature": "0xf3b82b62"
    },
    {
      "constant": true,
      "inputs": [
        {
          "name": "",
          "type": "address"
        }
      ],
      "name": "InvestorAddress2Id",
      "outputs": [
        {
          "name": "",
          "type": "uint256"
        }
      ],
      "payable": false,
      "stateMutability": "view",
      "type": "function",
      "signature": "0xfeffa41c"
    },
    {
      "anonymous": false,
      "inputs": [
        {
          "indexed": false,
          "name": "borrowerId",
          "type": "uint256"
        },
        {
          "indexed": false,
          "name": "firstName",
          "type": "string"
        },
        {
          "indexed": false,
          "name": "lastName",
          "type": "string"
        },
        {
          "indexed": false,
          "name": "accountBalance",
          "type": "uint256"
        }
      ],
      "name": "newBorrower",
      "type": "event",
      "signature": "0xbcdf2db88f43eea361932045277640639fe6175194589fe45207ce602d625f0c"
    },
    {
      "anonymous": false,
      "inputs": [
        {
          "indexed": false,
          "name": "investorId",
          "type": "uint256"
        },
        {
          "indexed": false,
          "name": "firstName",
          "type": "string"
        },
        {
          "indexed": false,
          "name": "lastName",
          "type": "string"
        },
        {
          "indexed": false,
          "name": "accountBalance",
          "type": "uint256"
        }
      ],
      "name": "newInvestor",
      "type": "event",
      "signature": "0xd3b82262aec4f59b3f8fd2f64a29f4c3e896f009caf24e35b53a93f80fb784f8"
    },
    {
      "anonymous": false,
      "inputs": [
        {
          "indexed": false,
          "name": "loanId",
          "type": "uint256"
        },
        {
          "indexed": false,
          "name": "totalAmount",
          "type": "uint256"
        },
        {
          "indexed": false,
          "name": "interestRate",
          "type": "uint256"
        },
        {
          "indexed": false,
          "name": "loanDuration",
          "type": "uint256"
        }
      ],
      "name": "newLoan",
      "type": "event",
      "signature": "0x77083207a37cca0952bdf16081e8a76a010a9c62013931a4d729ae4c69c03e62"
    },
    {
      "constant": false,
      "inputs": [
        {
          "name": "_firstName",
          "type": "string"
        },
        {
          "name": "_lastName",
          "type": "string"
        },
        {
          "name": "_accountBalance",
          "type": "uint256"
        }
      ],
      "name": "createBorrower",
      "outputs": [],
      "payable": false,
      "stateMutability": "nonpayable",
      "type": "function",
      "signature": "0xf73d3c8b"
    },
    {
      "constant": false,
      "inputs": [
        {
          "name": "_firstName",
          "type": "string"
        },
        {
          "name": "_lastName",
          "type": "string"
        },
        {
          "name": "_accountBalance",
          "type": "uint256"
        }
      ],
      "name": "createInvestor",
      "outputs": [],
      "payable": false,
      "stateMutability": "nonpayable",
      "type": "function",
      "signature": "0xd4fb2b34"
    },
    {
      "constant": false,
      "inputs": [
        {
          "name": "_shortDescription",
          "type": "string"
        },
        {
          "name": "_loanDetails",
          "type": "string"
        },
        {
          "name": "_tag",
          "type": "string"
        },
        {
          "name": "_startDate",
          "type": "string"
        },
        {
          "name": "_loanDuration",
          "type": "uint256"
        },
        {
          "name": "_totalAmount",
          "type": "uint256"
        },
        {
          "name": "_interestRate",
          "type": "uint256"
        }
      ],
      "name": "createLoan",
      "outputs": [],
      "payable": false,
      "stateMutability": "nonpayable",
      "type": "function",
      "signature": "0x59c37c43"
    },
    {
      "constant": false,
      "inputs": [
        {
          "name": "_loanId",
          "type": "uint256"
        },
        {
          "name": "_fundingAmount",
          "type": "uint256"
        }
      ],
      "name": "fundLoan",
      "outputs": [],
      "payable": false,
      "stateMutability": "nonpayable",
      "type": "function",
      "signature": "0xf4512bb6"
    },
    {
      "constant": false,
      "inputs": [
        {
          "name": "_loanId",
          "type": "uint256"
        },
        {
          "name": "_investorId",
          "type": "uint256"
        },
        {
          "name": "_fundingAmount",
          "type": "uint256"
        }
      ],
      "name": "changeFundingAmounts",
      "outputs": [],
      "payable": false,
      "stateMutability": "nonpayable",
      "type": "function",
      "signature": "0xaa2a57bb"
    },
    {
      "constant": true,
      "inputs": [
        {
          "name": "_loanId",
          "type": "uint256"
        }
      ],
      "name": "getLoanInvestorsIds",
      "outputs": [
        {
          "name": "",
          "type": "uint256[]"
        }
      ],
      "payable": false,
      "stateMutability": "view",
      "type": "function",
      "signature": "0xc7446842"
    },
    {
      "constant": false,
      "inputs": [
        {
          "name": "_investorId",
          "type": "uint256"
        },
        {
          "name": "_loanId",
          "type": "uint256"
        },
        {
          "name": "paybackAmount",
          "type": "uint256"
        }
      ],
      "name": "_paybackInvestor",
      "outputs": [],
      "payable": false,
      "stateMutability": "nonpayable",
      "type": "function",
      "signature": "0xb810e50e"
    },
    {
      "constant": true,
      "inputs": [
        {
          "name": "_loanId",
          "type": "uint256"
        }
      ],
      "name": "getFundingAmounts",
      "outputs": [
        {
          "name": "",
          "type": "uint256[]"
        }
      ],
      "payable": false,
      "stateMutability": "view",
      "type": "function",
      "signature": "0x7489cad4"
    },
    {
      "constant": true,
      "inputs": [],
      "name": "getTotalNumBorrowers",
      "outputs": [
        {
          "name": "",
          "type": "uint256"
        }
      ],
      "payable": false,
      "stateMutability": "view",
      "type": "function",
      "signature": "0x820db6e2"
    },
    {
      "constant": true,
      "inputs": [],
      "name": "getTotalNumInvestors",
      "outputs": [
        {
          "name": "",
          "type": "uint256"
        }
      ],
      "payable": false,
      "stateMutability": "view",
      "type": "function",
      "signature": "0x9799ca9d"
    },
    {
      "constant": true,
      "inputs": [],
      "name": "getTotalNumLoans",
      "outputs": [
        {
          "name": "",
          "type": "uint256"
        }
      ],
      "payable": false,
      "stateMutability": "view",
      "type": "function",
      "signature": "0x37ea3089"
    },
    {
      "constant": true,
      "inputs": [
        {
          "name": "_address",
          "type": "address"
        }
      ],
      "name": "getLoansBorrowerHasCrerated",
      "outputs": [
        {
          "name": "",
          "type": "uint256[]"
        }
      ],
      "payable": false,
      "stateMutability": "view",
      "type": "function",
      "signature": "0xad63850d"
    },
    {
      "constant": true,
      "inputs": [
        {
          "name": "_address",
          "type": "address"
        }
      ],
      "name": "getLoanIdsByInvestor",
      "outputs": [
        {
          "name": "",
          "type": "uint256[]"
        }
      ],
      "payable": false,
      "stateMutability": "view",
      "type": "function",
      "signature": "0x991a6247"
    },
    {
      "constant": true,
      "inputs": [
        {
          "name": "_loanId",
          "type": "uint256"
        }
      ],
      "name": "getInvestorsByLoanId",
      "outputs": [
        {
          "name": "",
          "type": "address[]"
        }
      ],
      "payable": false,
      "stateMutability": "view",
      "type": "function",
      "signature": "0xdb5c9406"
    },
    {
      "constant": true,
      "inputs": [
        {
          "name": "_loanId",
          "type": "uint256"
        }
      ],
      "name": "getFundingAmountsByLoanId",
      "outputs": [
        {
          "name": "",
          "type": "uint256[]"
        }
      ],
      "payable": false,
      "stateMutability": "view",
      "type": "function",
      "signature": "0x4c41df84"
    },
    {
      "constant": true,
      "inputs": [
        {
          "name": "_loanId",
          "type": "uint256"
        }
      ],
      "name": "getBorrowersOnLoan",
      "outputs": [
        {
          "name": "",
          "type": "address[]"
        }
      ],
      "payable": false,
      "stateMutability": "view",
      "type": "function",
      "signature": "0xd50a10ee"
    },
    {
      "constant": true,
      "inputs": [
        {
          "name": "decimals",
          "type": "uint256"
        },
        {
          "name": "totalValue",
          "type": "uint256"
        },
        {
          "name": "percentage",
          "type": "uint256"
        }
      ],
      "name": "interestCalc",
      "outputs": [
        {
          "name": "",
          "type": "uint256"
        }
      ],
      "payable": false,
      "stateMutability": "view",
      "type": "function",
      "signature": "0xeea3d251"
    },
    {
      "constant": true,
      "inputs": [],
      "name": "getAllLoanIds",
      "outputs": [
        {
          "name": "",
          "type": "uint256[]"
        }
      ],
      "payable": false,
      "stateMutability": "view",
      "type": "function",
      "signature": "0x5c1bf865"
    },
    {
      "constant": true,
      "inputs": [
        {
          "name": "_loanId",
          "type": "uint256"
        }
      ],
      "name": "getLoanContractIdsFromLoanId",
      "outputs": [
        {
          "name": "",
          "type": "uint256[]"
        }
      ],
      "payable": false,
      "stateMutability": "view",
      "type": "function",
      "signature": "0x75cd7e4b"
    },
    {
      "constant": true,
      "inputs": [
        {
          "name": "_address",
          "type": "address"
        }
      ],
      "name": "getLoanContractsInvestorHas",
      "outputs": [
        {
          "name": "",
          "type": "uint256[]"
        }
      ],
      "payable": false,
      "stateMutability": "view",
      "type": "function",
      "signature": "0x3011c5a6"
    },
    {
      "constant": true,
      "inputs": [
        {
          "name": "account",
          "type": "address"
        }
      ],
      "name": "isBorrower",
      "outputs": [
        {
          "name": "",
          "type": "bool"
        }
      ],
      "payable": false,
      "stateMutability": "view",
      "type": "function",
      "signature": "0xeaf6e483"
    },
    {
      "constant": true,
      "inputs": [
        {
          "name": "account",
          "type": "address"
        }
      ],
      "name": "isInvestor",
      "outputs": [
        {
          "name": "",
          "type": "bool"
        }
      ],
      "payable": false,
      "stateMutability": "view",
      "type": "function",
      "signature": "0xcee2a9cf"
    },
    {
      "constant": true,
      "inputs": [
        {
          "name": "_id",
          "type": "uint256"
        }
      ],
      "name": "isLoan",
      "outputs": [
        {
          "name": "",
          "type": "bool"
        }
      ],
      "payable": false,
      "stateMutability": "view",
      "type": "function",
      "signature": "0x1ed726ce"
    }
  ],
  "bytecode": "0x608060405234801561001057600080fd5b50615fa780620000216000396000f3fe60806040526004361061021a576000357c0100000000000000000000000000000000000000000000000000000000900463ffffffff16806319ea535a1461021f5780631b1cd4ff1461025c5780631db58ad11461029f5780631ed726ce146102e75780632de0780e146103245780633011c5a6146103615780633511aed81461039e57806337ea3089146103db5780633feb5f2b146104065780634c41df84146104495780634d6024771461048657806356c41aed146104c357806359c37c43146105065780635c1bf8651461052f5780637489cad41461055a57806375cd7e4b146105975780637924d93f146105d4578063820db6e2146106175780639151fab6146106425780639799ca9d1461067f578063991a6247146106aa5780639d1c09ec146106e7578063a58fade114610724578063aa2a57bb1461076c578063ad63850d14610795578063b5e2ebc6146107d2578063b810e50e1461081a578063bdf78ba614610843578063c744684214610886578063c9e58cbd146108c3578063cee2a9cf14610900578063d4fb2b341461093d578063d50a10ee14610966578063d56b7631146109a3578063db5c9406146109e0578063e1ec3c6814610a1d578063e41ce52614610a65578063e56a147914610aa2578063eaf6e48314610adf578063eea3d25114610b1c578063f3b82b6214610b59578063f4512bb614610b96578063f73d3c8b14610bbf578063feffa41c14610be8575b600080fd5b34801561022b57600080fd5b506102466004803603610241919081019061570a565b610c25565b6040516102539190615d55565b60405180910390f35b34801561026857600080fd5b50610283600480360361027e919081019061570a565b610c3d565b6040516102969796959493929190615ba3565b60405180910390f35b3480156102ab57600080fd5b506102c660048036036102c19190810190615915565b610ddc565b6040516102de9c9b9a99989796959493929190615ad4565b60405180910390f35b3480156102f357600080fd5b5061030e600480360361030991908101906158ec565b611060565b60405161031b9190615c64565b60405180910390f35b34801561033057600080fd5b5061034b60048036036103469190810190615733565b6110ec565b6040516103589190615d55565b60405180910390f35b34801561036d57600080fd5b506103886004803603610383919081019061570a565b61111c565b6040516103959190615c42565b60405180910390f35b3480156103aa57600080fd5b506103c560048036036103c09190810190615915565b61127b565b6040516103d29190615ab9565b60405180910390f35b3480156103e757600080fd5b506103f06112c8565b6040516103fd9190615d55565b60405180910390f35b34801561041257600080fd5b5061042d600480360361042891908101906158ec565b6112d2565b6040516104409796959493929190615ba3565b60405180910390f35b34801561045557600080fd5b50610470600480360361046b91908101906158ec565b611480565b60405161047d9190615c42565b60405180910390f35b34801561049257600080fd5b506104ad60048036036104a891908101906158ec565b6114eb565b6040516104ba9190615ab9565b60405180910390f35b3480156104cf57600080fd5b506104ea60048036036104e59190810190615915565b61151e565b6040516104fd9796959493929190615ba3565b60405180910390f35b34801561051257600080fd5b5061052d6004803603610528919081019061576f565b6116d9565b005b34801561053b57600080fd5b50610544611bf5565b6040516105519190615c42565b60405180910390f35b34801561056657600080fd5b50610581600480360361057c91908101906158ec565b611ca4565b60405161058e9190615c42565b60405180910390f35b3480156105a357600080fd5b506105be60048036036105b991908101906158ec565b611d81565b6040516105cb9190615c42565b60405180910390f35b3480156105e057600080fd5b506105fb60048036036105f691908101906158ec565b61216e565b60405161060e9796959493929190615ba3565b60405180910390f35b34801561062357600080fd5b5061062c61231c565b6040516106399190615d55565b60405180910390f35b34801561064e57600080fd5b5061066960048036036106649190810190615915565b612326565b6040516106769190615d55565b60405180910390f35b34801561068b57600080fd5b50610694612356565b6040516106a19190615d55565b60405180910390f35b3480156106b657600080fd5b506106d160048036036106cc919081019061570a565b612360565b6040516106de9190615c42565b60405180910390f35b3480156106f357600080fd5b5061070e6004803603610709919081019061570a565b6123f7565b60405161071b9190615d55565b60405180910390f35b34801561073057600080fd5b5061074b600480360361074691908101906158ec565b61240f565b6040516107639c9b9a99989796959493929190615ad4565b60405180910390f35b34801561077857600080fd5b50610793600480360361078e9190810190615951565b612686565b005b3480156107a157600080fd5b506107bc60048036036107b7919081019061570a565b612787565b6040516107c99190615c42565b60405180910390f35b3480156107de57600080fd5b506107f960048036036107f4919081019061570a565b61281e565b6040516108119c9b9a99989796959493929190615c7f565b60405180910390f35b34801561082657600080fd5b50610841600480360361083c9190810190615951565b612af8565b005b34801561084f57600080fd5b5061086a6004803603610865919081019061570a565b61329b565b60405161087d9796959493929190615ba3565b60405180910390f35b34801561089257600080fd5b506108ad60048036036108a891908101906158ec565b61343a565b6040516108ba9190615c42565b60405180910390f35b3480156108cf57600080fd5b506108ea60048036036108e591908101906158ec565b61351e565b6040516108f79190615ab9565b60405180910390f35b34801561090c57600080fd5b506109276004803603610922919081019061570a565b613551565b6040516109349190615c64565b60405180910390f35b34801561094957600080fd5b50610964600480360361095f919081019061586d565b6135aa565b005b34801561097257600080fd5b5061098d600480360361098891908101906158ec565b613928565b60405161099a9190615c20565b60405180910390f35b3480156109af57600080fd5b506109ca60048036036109c591908101906158ec565b6139c9565b6040516109d79190615ab9565b60405180910390f35b3480156109ec57600080fd5b50610a076004803603610a0291908101906158ec565b6139fc565b604051610a149190615c20565b60405180910390f35b348015610a2957600080fd5b50610a446004803603610a3f91908101906158ec565b613a9d565b604051610a5c9c9b9a99989796959493929190615c7f565b60405180910390f35b348015610a7157600080fd5b50610a8c6004803603610a87919081019061570a565b613d86565b604051610a999190615d55565b60405180910390f35b348015610aae57600080fd5b50610ac96004803603610ac49190810190615733565b613d9e565b604051610ad69190615d55565b60405180910390f35b348015610aeb57600080fd5b50610b066004803603610b01919081019061570a565b613dce565b604051610b139190615c64565b60405180910390f35b348015610b2857600080fd5b50610b436004803603610b3e9190810190615951565b613e27565b604051610b509190615d55565b60405180910390f35b348015610b6557600080fd5b50610b806004803603610b7b9190810190615915565b613e68565b604051610b8d9190615ab9565b60405180910390f35b348015610ba257600080fd5b50610bbd6004803603610bb89190810190615915565b613eb5565b005b348015610bcb57600080fd5b50610be66004803603610be1919081019061586d565b615029565b005b348015610bf457600080fd5b50610c0f6004803603610c0a919081019061570a565b6153a8565b604051610c1c9190615d55565b60405180910390f35b600c6020528060005260406000206000915090505481565b60116020528060005260406000206000915090508060000160009054906101000a900473ffffffffffffffffffffffffffffffffffffffff1690806001018054600181600116156101000203166002900480601f016020809104026020016040519081016040528092919081815260200182805460018160011615610100020316600290048015610d0f5780601f10610ce457610100808354040283529160200191610d0f565b820191906000526020600020905b815481529060010190602001808311610cf257829003601f168201915b505050505090806002018054600181600116156101000203166002900480601f016020809104026020016040519081016040528092919081815260200182805460018160011615610100020316600290048015610dad5780601f10610d8257610100808354040283529160200191610dad565b820191906000526020600020905b815481529060010190602001808311610d9057829003601f168201915b5050505050908060030154908060040154908060050154908060060160009054906101000a900460ff16905087565b601b60205281600052604060002081815481101515610df757fe5b90600052602060002090600c0201600091509150508060000160009054906101000a900473ffffffffffffffffffffffffffffffffffffffff16908060010160009054906101000a900473ffffffffffffffffffffffffffffffffffffffff1690806002015490806003015490806004015490806005015490806006015490806007015490806008015490806009018054600181600116156101000203166002900480601f016020809104026020016040519081016040528092919081815260200182805460018160011615610100020316600290048015610f1a5780601f10610eef57610100808354040283529160200191610f1a565b820191906000526020600020905b815481529060010190602001808311610efd57829003601f168201915b50505050509080600a018054600181600116156101000203166002900480601f016020809104026020016040519081016040528092919081815260200182805460018160011615610100020316600290048015610fb85780601f10610f8d57610100808354040283529160200191610fb8565b820191906000526020600020905b815481529060010190602001808311610f9b57829003601f168201915b50505050509080600b018054600181600116156101000203166002900480601f0160208091040260200160405190810160405280929190818152602001828054600181600116156101000203166002900480156110565780601f1061102b57610100808354040283529160200191611056565b820191906000526020600020905b81548152906001019060200180831161103957829003601f168201915b505050505090508c565b6000601460006012600085815260200190815260200160002060009054906101000a900473ffffffffffffffffffffffffffffffffffffffff1673ffffffffffffffffffffffffffffffffffffffff1673ffffffffffffffffffffffffffffffffffffffff168152602001908152602001600020600a0160009054906101000a900460ff169050919050565b600e6020528160005260406000208181548110151561110757fe5b90600052602060002001600091509150505481565b606060008090506060601960008573ffffffffffffffffffffffffffffffffffffffff1673ffffffffffffffffffffffffffffffffffffffff168152602001908152602001600020546040519080825280602002602001820160405280156111935781602001602082028038833980820191505090505b50905060008090505b600380549050811015611270578473ffffffffffffffffffffffffffffffffffffffff166003828154811015156111cf57fe5b90600052602060002090600c020160010160009054906101000a900473ffffffffffffffffffffffffffffffffffffffff1673ffffffffffffffffffffffffffffffffffffffff1614156112635760038181548110151561122c57fe5b90600052602060002090600c020160080154828481518110151561124c57fe5b906020019060200201818152505082806001019350505b808060010191505061119c565b508092505050919050565b60156020528160005260406000208181548110151561129657fe5b906000526020600020016000915091509054906101000a900473ffffffffffffffffffffffffffffffffffffffff1681565b6000600654905090565b6001818154811015156112e157fe5b90600052602060002090600702016000915090508060000160009054906101000a900473ffffffffffffffffffffffffffffffffffffffff1690806001018054600181600116156101000203166002900480601f0160208091040260200160405190810160405280929190818152602001828054600181600116156101000203166002900480156113b35780601f10611388576101008083540402835291602001916113b3565b820191906000526020600020905b81548152906001019060200180831161139657829003601f168201915b505050505090806002018054600181600116156101000203166002900480601f0160208091040260200160405190810160405280929190818152602001828054600181600116156101000203166002900480156114515780601f1061142657610100808354040283529160200191611451565b820191906000526020600020905b81548152906001019060200180831161143457829003601f168201915b5050505050908060030154908060040154908060050154908060060160009054906101000a900460ff16905087565b6060601860008381526020019081526020016000208054806020026020016040519081016040528092919081815260200182805480156114df57602002820191906000526020600020905b8154815260200190600101908083116114cb575b50505050509050919050565b600b6020528060005260406000206000915054906101000a900473ffffffffffffffffffffffffffffffffffffffff1681565b60166020528160005260406000208181548110151561153957fe5b9060005260206000209060070201600091509150508060000160009054906101000a900473ffffffffffffffffffffffffffffffffffffffff1690806001018054600181600116156101000203166002900480601f01602080910402602001604051908101604052809291908181526020018280546001816001161561010002031660029004801561160c5780601f106115e15761010080835404028352916020019161160c565b820191906000526020600020905b8154815290600101906020018083116115ef57829003601f168201915b505050505090806002018054600181600116156101000203166002900480601f0160208091040260200160405190810160405280929190818152602001828054600181600116156101000203166002900480156116aa5780601f1061167f576101008083540402835291602001916116aa565b820191906000526020600020905b81548152906001019060200180831161168d57829003601f168201915b5050505050908060030154908060040154908060050154908060060160009054906101000a900460ff16905087565b6116e233613dce565b15156116ed57600080fd5b6116f56153c0565b610180604051908101604052808981526020018881526020018781526020018681526020016009548152602001858152602001848152602001600081526020018381526020016000815260200160011515815260200160001515815250905060016002829080600181540180825580915050906001820390600052602060002090600b02016000909192909190915060008201518160000190805190602001906117a0929190615426565b5060208201518160010190805190602001906117bd929190615426565b5060408201518160020190805190602001906117da929190615426565b5060608201518160030190805190602001906117f7929190615426565b506080820151816004015560a0820151816005015560c0820151816006015560e082015181600701556101008201518160080155610120820151816009015561014082015181600a0160006101000a81548160ff02191690831515021790555061016082015181600a0160016101000a81548160ff021916908315150217905550505050503360126000600954815260200190815260200160002060006101000a81548173ffffffffffffffffffffffffffffffffffffffff021916908373ffffffffffffffffffffffffffffffffffffffff160217905550600954601360003373ffffffffffffffffffffffffffffffffffffffff1673ffffffffffffffffffffffffffffffffffffffff1681526020019081526020016000208190555080601460003373ffffffffffffffffffffffffffffffffffffffff1673ffffffffffffffffffffffffffffffffffffffff1681526020019081526020016000206000820151816000019080519060200190611972929190615426565b50602082015181600101908051906020019061198f929190615426565b5060408201518160020190805190602001906119ac929190615426565b5060608201518160030190805190602001906119c9929190615426565b506080820151816004015560a0820151816005015560c0820151816006015560e082015181600701556101008201518160080155610120820151816009015561014082015181600a0160006101000a81548160ff02191690831515021790555061016082015181600a0160016101000a81548160ff021916908315150217905550905050600e60003373ffffffffffffffffffffffffffffffffffffffff1673ffffffffffffffffffffffffffffffffffffffff16815260200190815260200160002060095490806001815401808255809150509060018203906000526020600020016000909192909190915055506006600081548092919060010191905055506009600081548092919060010191905055506000600c60003373ffffffffffffffffffffffffffffffffffffffff1673ffffffffffffffffffffffffffffffffffffffff16815260200190815260200160002054815481101515611b2a57fe5b906000526020600020906007020160040160008154809291906001019190505550600d60003373ffffffffffffffffffffffffffffffffffffffff1673ffffffffffffffffffffffffffffffffffffffff168152602001908152602001600020600401600081548092919060010191905055507f77083207a37cca0952bdf16081e8a76a010a9c62013931a4d729ae4c69c03e6281608001518260c001518361010001518460a00151604051611be39493929190615dc3565b60405180910390a15050505050505050565b606080600280549050604051908082528060200260200182016040528015611c2c5781602001602082028038833980820191505090505b50905060008090506000600190505b60028054905081111515611c9b57600282815481101515611c5857fe5b90600052602060002090600b0201600401548383815181101515611c7857fe5b906020019060200201818152505081806001019250508080600101915050611c3b565b50819250505090565b6060806018600084815260200190815260200160002080549050604051908082528060200260200182016040528015611cec5781602001602082028038833980820191505090505b50905060008090506000600190505b601860008681526020019081526020016000208054905081111515611d76576018600086815260200190815260200160002082815481101515611d3a57fe5b90600052602060002001548383815181101515611d5357fe5b906020019060200201818152505081806001019250508080600101915050611cfb565b508192505050919050565b606080601b6000848152602001908152602001600020805480602002602001604051908101604052809291908181526020016000905b828210156120c357838290600052602060002090600c020161018060405190810160405290816000820160009054906101000a900473ffffffffffffffffffffffffffffffffffffffff1673ffffffffffffffffffffffffffffffffffffffff1673ffffffffffffffffffffffffffffffffffffffff1681526020016001820160009054906101000a900473ffffffffffffffffffffffffffffffffffffffff1673ffffffffffffffffffffffffffffffffffffffff1673ffffffffffffffffffffffffffffffffffffffff16815260200160028201548152602001600382015481526020016004820154815260200160058201548152602001600682015481526020016007820154815260200160088201548152602001600982018054600181600116156101000203166002900480601f016020809104026020016040519081016040528092919081815260200182805460018160011615610100020316600290048015611f675780601f10611f3c57610100808354040283529160200191611f67565b820191906000526020600020905b815481529060010190602001808311611f4a57829003601f168201915b50505050508152602001600a82018054600181600116156101000203166002900480601f0160208091040260200160405190810160405280929190818152602001828054600181600116156101000203166002900480156120095780601f10611fde57610100808354040283529160200191612009565b820191906000526020600020905b815481529060010190602001808311611fec57829003601f168201915b50505050508152602001600b82018054600181600116156101000203166002900480601f0160208091040260200160405190810160405280929190818152602001828054600181600116156101000203166002900480156120ab5780601f10612080576101008083540402835291602001916120ab565b820191906000526020600020905b81548152906001019060200180831161208e57829003601f168201915b50505050508152505081526020019060010190611db7565b5050505090506000809050606082516040519080825280602002602001820160405280156121005781602001602082028038833980820191505090505b5090506000600190505b83518111151561216257838381518110151561212257fe5b906020019060200201516101000151828481518110151561213f57fe5b90602001906020020181815250508280600101935050808060010191505061210a565b50809350505050919050565b60008181548110151561217d57fe5b90600052602060002090600702016000915090508060000160009054906101000a900473ffffffffffffffffffffffffffffffffffffffff1690806001018054600181600116156101000203166002900480601f01602080910402602001604051908101604052809291908181526020018280546001816001161561010002031660029004801561224f5780601f106122245761010080835404028352916020019161224f565b820191906000526020600020905b81548152906001019060200180831161223257829003601f168201915b505050505090806002018054600181600116156101000203166002900480601f0160208091040260200160405190810160405280929190818152602001828054600181600116156101000203166002900480156122ed5780601f106122c2576101008083540402835291602001916122ed565b820191906000526020600020905b8154815290600101906020018083116122d057829003601f168201915b5050505050908060030154908060040154908060050154908060060160009054906101000a900460ff16905087565b6000600454905090565b60186020528160005260406000208181548110151561234157fe5b90600052602060002001600091509150505481565b6000600554905090565b6060601760008373ffffffffffffffffffffffffffffffffffffffff1673ffffffffffffffffffffffffffffffffffffffff1681526020019081526020016000208054806020026020016040519081016040528092919081815260200182805480156123eb57602002820191906000526020600020905b8154815260200190600101908083116123d7575b50505050509050919050565b60196020528060005260406000206000915090505481565b60038181548110151561241e57fe5b90600052602060002090600c02016000915090508060000160009054906101000a900473ffffffffffffffffffffffffffffffffffffffff16908060010160009054906101000a900473ffffffffffffffffffffffffffffffffffffffff1690806002015490806003015490806004015490806005015490806006015490806007015490806008015490806009018054600181600116156101000203166002900480601f0160208091040260200160405190810160405280929190818152602001828054600181600116156101000203166002900480156125405780601f1061251557610100808354040283529160200191612540565b820191906000526020600020905b81548152906001019060200180831161252357829003601f168201915b50505050509080600a018054600181600116156101000203166002900480601f0160208091040260200160405190810160405280929190818152602001828054600181600116156101000203166002900480156125de5780601f106125b3576101008083540402835291602001916125de565b820191906000526020600020905b8154815290600101906020018083116125c157829003601f168201915b50505050509080600b018054600181600116156101000203166002900480601f01602080910402602001604051908101604052809291908181526020018280546001816001161561010002031660029004801561267c5780601f106126515761010080835404028352916020019161267c565b820191906000526020600020905b81548152906001019060200180831161265f57829003601f168201915b505050505090508c565b60606126918461343a565b905060008090506000600190505b82518111151561277f578483838151811015156126b857fe5b90602001906020020151141561276a5760186000878152602001908152602001600020828154811015156126e857fe5b906000526020600020015484101515612730576000601860008881526020019081526020016000208381548110151561271d57fe5b9060005260206000200181905550612769565b83601860008881526020019081526020016000208381548110151561275157fe5b90600052602060002001600082825403925050819055505b5b8180600101925050808060010191505061269f565b505050505050565b6060600e60008373ffffffffffffffffffffffffffffffffffffffff1673ffffffffffffffffffffffffffffffffffffffff16815260200190815260200160002080548060200260200160405190810160405280929190818152602001828054801561281257602002820191906000526020600020905b8154815260200190600101908083116127fe575b50505050509050919050565b6014602052806000526040600020600091509050806000018054600181600116156101000203166002900480601f0160208091040260200160405190810160405280929190818152602001828054600181600116156101000203166002900480156128ca5780601f1061289f576101008083540402835291602001916128ca565b820191906000526020600020905b8154815290600101906020018083116128ad57829003601f168201915b505050505090806001018054600181600116156101000203166002900480601f0160208091040260200160405190810160405280929190818152602001828054600181600116156101000203166002900480156129685780601f1061293d57610100808354040283529160200191612968565b820191906000526020600020905b81548152906001019060200180831161294b57829003601f168201915b505050505090806002018054600181600116156101000203166002900480601f016020809104026020016040519081016040528092919081815260200182805460018160011615610100020316600290048015612a065780601f106129db57610100808354040283529160200191612a06565b820191906000526020600020905b8154815290600101906020018083116129e957829003601f168201915b505050505090806003018054600181600116156101000203166002900480601f016020809104026020016040519081016040528092919081815260200182805460018160011615610100020316600290048015612aa45780601f10612a7957610100808354040283529160200191612aa4565b820191906000526020600020905b815481529060010190602001808311612a8757829003601f168201915b50505050509080600401549080600501549080600601549080600701549080600801549080600901549080600a0160009054906101000a900460ff169080600a0160019054906101000a900460ff1690508c565b612b0182611060565b1515612b0c57600080fd5b6000600d60003373ffffffffffffffffffffffffffffffffffffffff1673ffffffffffffffffffffffffffffffffffffffff168152602001908152602001600020600301549050818110151515612b6257600080fd5b81600185815481101515612b7257fe5b9060005260206000209060070201600301600082825401925050819055508160116000600f600088815260200190815260200160002060009054906101000a900473ffffffffffffffffffffffffffffffffffffffff1673ffffffffffffffffffffffffffffffffffffffff1673ffffffffffffffffffffffffffffffffffffffff1681526020019081526020016000206003016000828254019250508190555081600d60006012600087815260200190815260200160002060009054906101000a900473ffffffffffffffffffffffffffffffffffffffff1673ffffffffffffffffffffffffffffffffffffffff1673ffffffffffffffffffffffffffffffffffffffff16815260200190815260200160002060030160008282540392505081905550816000600d60006012600088815260200190815260200160002060009054906101000a900473ffffffffffffffffffffffffffffffffffffffff1673ffffffffffffffffffffffffffffffffffffffff1673ffffffffffffffffffffffffffffffffffffffff16815260200190815260200160002060050154815481101515612d1b57fe5b906000526020600020906007020160030160008282540392505081905550612d44838584612686565b6060601b6000858152602001908152602001600020805480602002602001604051908101604052809291908181526020016000905b8282101561308557838290600052602060002090600c020161018060405190810160405290816000820160009054906101000a900473ffffffffffffffffffffffffffffffffffffffff1673ffffffffffffffffffffffffffffffffffffffff1673ffffffffffffffffffffffffffffffffffffffff1681526020016001820160009054906101000a900473ffffffffffffffffffffffffffffffffffffffff1673ffffffffffffffffffffffffffffffffffffffff1673ffffffffffffffffffffffffffffffffffffffff16815260200160028201548152602001600382015481526020016004820154815260200160058201548152602001600682015481526020016007820154815260200160088201548152602001600982018054600181600116156101000203166002900480601f016020809104026020016040519081016040528092919081815260200182805460018160011615610100020316600290048015612f295780601f10612efe57610100808354040283529160200191612f29565b820191906000526020600020905b815481529060010190602001808311612f0c57829003601f168201915b50505050508152602001600a82018054600181600116156101000203166002900480601f016020809104026020016040519081016040528092919081815260200182805460018160011615610100020316600290048015612fcb5780601f10612fa057610100808354040283529160200191612fcb565b820191906000526020600020905b815481529060010190602001808311612fae57829003601f168201915b50505050508152602001600b82018054600181600116156101000203166002900480601f01602080910402602001604051908101604052809291908181526020018280546001816001161561010002031660029004801561306d5780601f106130425761010080835404028352916020019161306d565b820191906000526020600020905b81548152906001019060200180831161305057829003601f168201915b50505050508152505081526020019060010190612d79565b50505050905060008090506000600190505b82518111151561329257866010600085858151811015156130b457fe5b906020019060200201516020015173ffffffffffffffffffffffffffffffffffffffff1673ffffffffffffffffffffffffffffffffffffffff16815260200190815260200160002054141561327c57601b60008781526020019081526020016000208281548110151561312357fe5b90600052602060002090600c020160040154851015156131d0576000601b60008881526020019081526020016000208381548110151561315f57fe5b90600052602060002090600c02016004018190555060006003601b60008981526020019081526020016000208481548110151561319857fe5b90600052602060002090600c0201600801548154811015156131b657fe5b90600052602060002090600c02016004018190555061326f565b84601b6000888152602001908152602001600020838154811015156131f157fe5b90600052602060002090600c020160040160008282540392505081905550846003601b60008981526020019081526020016000208481548110151561323257fe5b90600052602060002090600c02016008015481548110151561325057fe5b90600052602060002090600c0201600401600082825403925050819055505b8180600101925050613285565b81806001019250505b8080600101915050613097565b50505050505050565b600d6020528060005260406000206000915090508060000160009054906101000a900473ffffffffffffffffffffffffffffffffffffffff1690806001018054600181600116156101000203166002900480601f01602080910402602001604051908101604052809291908181526020018280546001816001161561010002031660029004801561336d5780601f106133425761010080835404028352916020019161336d565b820191906000526020600020905b81548152906001019060200180831161335057829003601f168201915b505050505090806002018054600181600116156101000203166002900480601f01602080910402602001604051908101604052809291908181526020018280546001816001161561010002031660029004801561340b5780601f106133e05761010080835404028352916020019161340b565b820191906000526020600020905b8154815290600101906020018083116133ee57829003601f168201915b5050505050908060030154908060040154908060050154908060060160009054906101000a900460ff16905087565b60608060166000848152602001908152602001600020805490506040519080825280602002602001820160405280156134825781602001602082028038833980820191505090505b50905060008090506000600190505b6016600086815260200190815260200160002080549050811115156135135760166000868152602001908152602001600020828154811015156134d057fe5b90600052602060002090600702016005015483838151811015156134f057fe5b906020019060200201818152505081806001019250508080600101915050613491565b508192505050919050565b60126020528060005260406000206000915054906101000a900473ffffffffffffffffffffffffffffffffffffffff1681565b6000601160008373ffffffffffffffffffffffffffffffffffffffff1673ffffffffffffffffffffffffffffffffffffffff16815260200190815260200160002060060160009054906101000a900460ff169050919050565b600015156135b733613551565b15151415156135c557600080fd5b6135cd6154a6565b60e0604051908101604052803373ffffffffffffffffffffffffffffffffffffffff1681526020018581526020018481526020018381526020016000815260200160085481526020016001151581525090506000600180839080600181540180825580915050906001820390600052602060002090600702016000909192909190915060008201518160000160006101000a81548173ffffffffffffffffffffffffffffffffffffffff021916908373ffffffffffffffffffffffffffffffffffffffff16021790555060208201518160010190805190602001906136b3929190615426565b5060408201518160020190805190602001906136d0929190615426565b50606082015181600301556080820151816004015560a0820151816005015560c08201518160060160006101000a81548160ff021916908315150217905550505003905033600f6000600854815260200190815260200160002060006101000a81548173ffffffffffffffffffffffffffffffffffffffff021916908373ffffffffffffffffffffffffffffffffffffffff160217905550600854601060003373ffffffffffffffffffffffffffffffffffffffff1673ffffffffffffffffffffffffffffffffffffffff1681526020019081526020016000208190555081601160003373ffffffffffffffffffffffffffffffffffffffff1673ffffffffffffffffffffffffffffffffffffffff16815260200190815260200160002060008201518160000160006101000a81548173ffffffffffffffffffffffffffffffffffffffff021916908373ffffffffffffffffffffffffffffffffffffffff1602179055506020820151816001019080519060200190613851929190615426565b50604082015181600201908051906020019061386e929190615426565b50606082015181600301556080820151816004015560a0820151816005015560c08201518160060160006101000a81548160ff0219169083151502179055509050506005600081548092919060010191905055506008600081548092919060010191905055507fd3b82262aec4f59b3f8fd2f64a29f4c3e896f009caf24e35b53a93f80fb784f88260a001518360200151846040015185606001516040516139199493929190615d70565b60405180910390a15050505050565b6060601a60008381526020019081526020016000208054806020026020016040519081016040528092919081815260200182805480156139bd57602002820191906000526020600020905b8160009054906101000a900473ffffffffffffffffffffffffffffffffffffffff1673ffffffffffffffffffffffffffffffffffffffff1681526020019060010190808311613973575b50505050509050919050565b600f6020528060005260406000206000915054906101000a900473ffffffffffffffffffffffffffffffffffffffff1681565b606060156000838152602001908152602001600020805480602002602001604051908101604052809291908181526020018280548015613a9157602002820191906000526020600020905b8160009054906101000a900473ffffffffffffffffffffffffffffffffffffffff1673ffffffffffffffffffffffffffffffffffffffff1681526020019060010190808311613a47575b50505050509050919050565b600281815481101515613aac57fe5b90600052602060002090600b0201600091509050806000018054600181600116156101000203166002900480601f016020809104026020016040519081016040528092919081815260200182805460018160011615610100020316600290048015613b585780601f10613b2d57610100808354040283529160200191613b58565b820191906000526020600020905b815481529060010190602001808311613b3b57829003601f168201915b505050505090806001018054600181600116156101000203166002900480601f016020809104026020016040519081016040528092919081815260200182805460018160011615610100020316600290048015613bf65780601f10613bcb57610100808354040283529160200191613bf6565b820191906000526020600020905b815481529060010190602001808311613bd957829003601f168201915b505050505090806002018054600181600116156101000203166002900480601f016020809104026020016040519081016040528092919081815260200182805460018160011615610100020316600290048015613c945780601f10613c6957610100808354040283529160200191613c94565b820191906000526020600020905b815481529060010190602001808311613c7757829003601f168201915b505050505090806003018054600181600116156101000203166002900480601f016020809104026020016040519081016040528092919081815260200182805460018160011615610100020316600290048015613d325780601f10613d0757610100808354040283529160200191613d32565b820191906000526020600020905b815481529060010190602001808311613d1557829003601f168201915b50505050509080600401549080600501549080600601549080600701549080600801549080600901549080600a0160009054906101000a900460ff169080600a0160019054906101000a900460ff1690508c565b60136020528060005260406000206000915090505481565b601760205281600052604060002081815481101515613db957fe5b90600052602060002001600091509150505481565b6000600d60008373ffffffffffffffffffffffffffffffffffffffff1673ffffffffffffffffffffffffffffffffffffffff16815260200190815260200160002060060160009054906101000a900460ff169050919050565b600083600a0a8302925060008284029050606481811515613e4457fe5b049050808401935084600a0a84811515613e5a57fe5b049350839150509392505050565b601a60205281600052604060002081815481101515613e8357fe5b906000526020600020016000915091509054906101000a900473ffffffffffffffffffffffffffffffffffffffff1681565b613ebe82611060565b1515613ec957600080fd5b613ed233613551565b1515613edd57600080fd5b80601160003373ffffffffffffffffffffffffffffffffffffffff1673ffffffffffffffffffffffffffffffffffffffff1681526020019081526020016000206003015410151515613f2e57600080fd5b600282815481101515613f3d57fe5b90600052602060002090600b020160070154600283815481101515613f5e57fe5b90600052602060002090600b020160060154038111151515613f7f57600080fd5b60001515601460006012600086815260200190815260200160002060009054906101000a900473ffffffffffffffffffffffffffffffffffffffff1673ffffffffffffffffffffffffffffffffffffffff1673ffffffffffffffffffffffffffffffffffffffff168152602001908152602001600020600a0160019054906101000a900460ff16151514151561401457600080fd5b80601460006012600086815260200190815260200160002060009054906101000a900473ffffffffffffffffffffffffffffffffffffffff1673ffffffffffffffffffffffffffffffffffffffff1673ffffffffffffffffffffffffffffffffffffffff16815260200190815260200160002060070160008282540192505081905550806002838154811015156140a757fe5b90600052602060002090600b0201600701600082825401925050819055506001601460006012600086815260200190815260200160002060009054906101000a900473ffffffffffffffffffffffffffffffffffffffff1673ffffffffffffffffffffffffffffffffffffffff1673ffffffffffffffffffffffffffffffffffffffff16815260200190815260200160002060090160008282540192505081905550600160028381548110151561415a57fe5b90600052602060002090600b02016009016000828254019250508190555060028281548110151561418757fe5b90600052602060002090600b020160060154601460006012600086815260200190815260200160002060009054906101000a900473ffffffffffffffffffffffffffffffffffffffff1673ffffffffffffffffffffffffffffffffffffffff1673ffffffffffffffffffffffffffffffffffffffff1681526020019081526020016000206007015414156142dd576001601460006012600086815260200190815260200160002060009054906101000a900473ffffffffffffffffffffffffffffffffffffffff1673ffffffffffffffffffffffffffffffffffffffff1673ffffffffffffffffffffffffffffffffffffffff168152602001908152602001600020600a0160016101000a81548160ff02191690831515021790555060016002838154811015156142b457fe5b90600052602060002090600b0201600a0160016101000a81548160ff0219169083151502179055505b601560008381526020019081526020016000203390806001815401808255809150509060018203906000526020600020016000909192909190916101000a81548173ffffffffffffffffffffffffffffffffffffffff021916908373ffffffffffffffffffffffffffffffffffffffff1602179055505060166000838152602001908152602001600020601160003373ffffffffffffffffffffffffffffffffffffffff1673ffffffffffffffffffffffffffffffffffffffff168152602001908152602001600020908060018154018082558091505090600182039060005260206000209060070201600090919290919091506000820160009054906101000a900473ffffffffffffffffffffffffffffffffffffffff168160000160006101000a81548173ffffffffffffffffffffffffffffffffffffffff021916908373ffffffffffffffffffffffffffffffffffffffff1602179055506001820181600101908054600181600116156101000203166002900461445f9291906154fc565b50600282018160020190805460018160011615610100020316600290046144879291906154fc565b506003820154816003015560048201548160040155600582015481600501556006820160009054906101000a900460ff168160060160006101000a81548160ff021916908315150217905550505050601760003373ffffffffffffffffffffffffffffffffffffffff1673ffffffffffffffffffffffffffffffffffffffff168152602001908152602001600020829080600181540180825580915050906001820390600052602060002001600090919290919091505550601960003373ffffffffffffffffffffffffffffffffffffffff1673ffffffffffffffffffffffffffffffffffffffff16815260200190815260200160002060008154809291906001019190505550601160003373ffffffffffffffffffffffffffffffffffffffff1673ffffffffffffffffffffffffffffffffffffffff168152602001908152602001600020600401600081548092919060010191905055506001601160003373ffffffffffffffffffffffffffffffffffffffff1673ffffffffffffffffffffffffffffffffffffffff1681526020019081526020016000206005015481548110151561463157fe5b90600052602060002090600702016004016000815480929190600101919050555080601160003373ffffffffffffffffffffffffffffffffffffffff1673ffffffffffffffffffffffffffffffffffffffff16815260200190815260200160002060030160008282540392505081905550806001601160003373ffffffffffffffffffffffffffffffffffffffff1673ffffffffffffffffffffffffffffffffffffffff168152602001908152602001600020600501548154811015156146f457fe5b90600052602060002090600702016003016000828254039250508190555080600d60006012600086815260200190815260200160002060009054906101000a900473ffffffffffffffffffffffffffffffffffffffff1673ffffffffffffffffffffffffffffffffffffffff1673ffffffffffffffffffffffffffffffffffffffff16815260200190815260200160002060030160008282540192505081905550806000600d60006012600087815260200190815260200160002060009054906101000a900473ffffffffffffffffffffffffffffffffffffffff1673ffffffffffffffffffffffffffffffffffffffff1673ffffffffffffffffffffffffffffffffffffffff1681526020019081526020016000206005015481548110151561481a57fe5b906000526020600020906007020160030160008282540192505081905550601a6000838152602001908152602001600020600d60006012600086815260200190815260200160002060009054906101000a900473ffffffffffffffffffffffffffffffffffffffff1673ffffffffffffffffffffffffffffffffffffffff1673ffffffffffffffffffffffffffffffffffffffff16815260200190815260200160002060000160009054906101000a900473ffffffffffffffffffffffffffffffffffffffff1690806001815401808255809150509060018203906000526020600020016000909192909190916101000a81548173ffffffffffffffffffffffffffffffffffffffff021916908373ffffffffffffffffffffffffffffffffffffffff160217905550506018600083815260200190815260200160002081908060018154018082558091505090600182039060005260206000200160009091929091909150555060006149af60028360028681548110151561499857fe5b90600052602060002090600b020160080154613e27565b90506149b9615583565b61018060405190810160405280600d60006012600089815260200190815260200160002060009054906101000a900473ffffffffffffffffffffffffffffffffffffffff1673ffffffffffffffffffffffffffffffffffffffff1673ffffffffffffffffffffffffffffffffffffffff16815260200190815260200160002060000160009054906101000a900473ffffffffffffffffffffffffffffffffffffffff1673ffffffffffffffffffffffffffffffffffffffff1681526020013373ffffffffffffffffffffffffffffffffffffffff168152602001848152602001838152602001838152602001600286815481101515614ab457fe5b90600052602060002090600b0201600801548152602001600286815481101515614ada57fe5b90600052602060002090600b0201600501548152602001858152602001600a548152602001600286815481101515614b0e57fe5b90600052602060002090600b02016003018054600181600116156101000203166002900480601f016020809104026020016040519081016040528092919081815260200182805460018160011615610100020316600290048015614bb35780601f10614b8857610100808354040283529160200191614bb3565b820191906000526020600020905b815481529060010190602001808311614b9657829003601f168201915b50505050508152602001600286815481101515614bcc57fe5b90600052602060002090600b02016000018054600181600116156101000203166002900480601f016020809104026020016040519081016040528092919081815260200182805460018160011615610100020316600290048015614c715780601f10614c4657610100808354040283529160200191614c71565b820191906000526020600020905b815481529060010190602001808311614c5457829003601f168201915b50505050508152602001600286815481101515614c8a57fe5b90600052602060002090600b02016001018054600181600116156101000203166002900480601f016020809104026020016040519081016040528092919081815260200182805460018160011615610100020316600290048015614d2f5780601f10614d0457610100808354040283529160200191614d2f565b820191906000526020600020905b815481529060010190602001808311614d1257829003601f168201915b50505050508152509050600060016003839080600181540180825580915050906001820390600052602060002090600c02016000909192909190915060008201518160000160006101000a81548173ffffffffffffffffffffffffffffffffffffffff021916908373ffffffffffffffffffffffffffffffffffffffff16021790555060208201518160010160006101000a81548173ffffffffffffffffffffffffffffffffffffffff021916908373ffffffffffffffffffffffffffffffffffffffff16021790555060408201518160020155606082015181600301556080820151816004015560a0820151816005015560c0820151816006015560e082015181600701556101008201518160080155610120820151816009019080519060200190614e5d929190615426565b5061014082015181600a019080519060200190614e7b929190615426565b5061016082015181600b019080519060200190614e99929190615426565b505050039050601b6000868152602001908152602001600020829080600181540180825580915050906001820390600052602060002090600c02016000909192909190915060008201518160000160006101000a81548173ffffffffffffffffffffffffffffffffffffffff021916908373ffffffffffffffffffffffffffffffffffffffff16021790555060208201518160010160006101000a81548173ffffffffffffffffffffffffffffffffffffffff021916908373ffffffffffffffffffffffffffffffffffffffff16021790555060408201518160020155606082015181600301556080820151816004015560a0820151816005015560c0820151816006015560e082015181600701556101008201518160080155610120820151816009019080519060200190614fd0929190615426565b5061014082015181600a019080519060200190614fee929190615426565b5061016082015181600b01908051906020019061500c929190615426565b50505050600a600081548092919060010191905055505050505050565b6000151561503633613dce565b151514151561504457600080fd5b61504c615611565b60e0604051908101604052803373ffffffffffffffffffffffffffffffffffffffff168152602001858152602001848152602001838152602001600081526020016007548152602001600115158152509050600060016000839080600181540180825580915050906001820390600052602060002090600702016000909192909190915060008201518160000160006101000a81548173ffffffffffffffffffffffffffffffffffffffff021916908373ffffffffffffffffffffffffffffffffffffffff1602179055506020820151816001019080519060200190615133929190615426565b506040820151816002019080519060200190615150929190615426565b50606082015181600301556080820151816004015560a0820151816005015560c08201518160060160006101000a81548160ff021916908315150217905550505003905033600b6000600754815260200190815260200160002060006101000a81548173ffffffffffffffffffffffffffffffffffffffff021916908373ffffffffffffffffffffffffffffffffffffffff160217905550600754600c60003373ffffffffffffffffffffffffffffffffffffffff1673ffffffffffffffffffffffffffffffffffffffff1681526020019081526020016000208190555081600d60003373ffffffffffffffffffffffffffffffffffffffff1673ffffffffffffffffffffffffffffffffffffffff16815260200190815260200160002060008201518160000160006101000a81548173ffffffffffffffffffffffffffffffffffffffff021916908373ffffffffffffffffffffffffffffffffffffffff16021790555060208201518160010190805190602001906152d1929190615426565b5060408201518160020190805190602001906152ee929190615426565b50606082015181600301556080820151816004015560a0820151816005015560c08201518160060160006101000a81548160ff0219169083151502179055509050506004600081548092919060010191905055506007600081548092919060010191905055507fbcdf2db88f43eea361932045277640639fe6175194589fe45207ce602d625f0c8260a001518360200151846040015185606001516040516153999493929190615d70565b60405180910390a15050505050565b60106020528060005260406000206000915090505481565b61018060405190810160405280606081526020016060815260200160608152602001606081526020016000815260200160008152602001600081526020016000815260200160008152602001600081526020016000151581526020016000151581525090565b828054600181600116156101000203166002900490600052602060002090601f016020900481019282601f1061546757805160ff1916838001178555615495565b82800160010185558215615495579182015b82811115615494578251825591602001919060010190615479565b5b5090506154a29190615667565b5090565b60e060405190810160405280600073ffffffffffffffffffffffffffffffffffffffff16815260200160608152602001606081526020016000815260200160008152602001600081526020016000151581525090565b828054600181600116156101000203166002900490600052602060002090601f016020900481019282601f106155355780548555615572565b8280016001018555821561557257600052602060002091601f016020900482015b82811115615571578254825591600101919060010190615556565b5b50905061557f9190615667565b5090565b61018060405190810160405280600073ffffffffffffffffffffffffffffffffffffffff168152602001600073ffffffffffffffffffffffffffffffffffffffff168152602001600081526020016000815260200160008152602001600081526020016000815260200160008152602001600081526020016060815260200160608152602001606081525090565b60e060405190810160405280600073ffffffffffffffffffffffffffffffffffffffff16815260200160608152602001606081526020016000815260200160008152602001600081526020016000151581525090565b61568991905b8082111561568557600081600090555060010161566d565b5090565b90565b60006156988235615efe565b905092915050565b600082601f83011215156156b357600080fd5b81356156c66156c182615e35565b615e08565b915080825260208301602083018583830111156156e257600080fd5b6156ed838284615f1a565b50505092915050565b60006157028235615f10565b905092915050565b60006020828403121561571c57600080fd5b600061572a8482850161568c565b91505092915050565b6000806040838503121561574657600080fd5b60006157548582860161568c565b9250506020615765858286016156f6565b9150509250929050565b600080600080600080600060e0888a03121561578a57600080fd5b600088013567ffffffffffffffff8111156157a457600080fd5b6157b08a828b016156a0565b975050602088013567ffffffffffffffff8111156157cd57600080fd5b6157d98a828b016156a0565b965050604088013567ffffffffffffffff8111156157f657600080fd5b6158028a828b016156a0565b955050606088013567ffffffffffffffff81111561581f57600080fd5b61582b8a828b016156a0565b945050608061583c8a828b016156f6565b93505060a061584d8a828b016156f6565b92505060c061585e8a828b016156f6565b91505092959891949750929550565b60008060006060848603121561588257600080fd5b600084013567ffffffffffffffff81111561589c57600080fd5b6158a8868287016156a0565b935050602084013567ffffffffffffffff8111156158c557600080fd5b6158d1868287016156a0565b92505060406158e2868287016156f6565b9150509250925092565b6000602082840312156158fe57600080fd5b600061590c848285016156f6565b91505092915050565b6000806040838503121561592857600080fd5b6000615936858286016156f6565b9250506020615947858286016156f6565b9150509250929050565b60008060006060848603121561596657600080fd5b6000615974868287016156f6565b9350506020615985868287016156f6565b9250506040615996868287016156f6565b9150509250925092565b6159a981615eb6565b82525050565b60006159ba82615e7b565b8084526020840193506159cc83615e61565b60005b828110156159fe576159e28683516159a0565b6159eb82615e9c565b91506020860195506001810190506159cf565b50849250505092915050565b6000615a1582615e86565b808452602084019350615a2783615e6e565b60005b82811015615a5957615a3d868351615aaa565b615a4682615ea9565b9150602086019550600181019050615a2a565b50849250505092915050565b615a6e81615ec8565b82525050565b6000615a7f82615e91565b808452615a93816020860160208601615f29565b615a9c81615f5c565b602085010191505092915050565b615ab381615ef4565b82525050565b6000602082019050615ace60008301846159a0565b92915050565b600061018082019050615aea600083018f6159a0565b615af7602083018e6159a0565b615b04604083018d615aaa565b615b11606083018c615aaa565b615b1e608083018b615aaa565b615b2b60a083018a615aaa565b615b3860c0830189615aaa565b615b4560e0830188615aaa565b615b53610100830187615aaa565b818103610120830152615b668186615a74565b9050818103610140830152615b7b8185615a74565b9050818103610160830152615b908184615a74565b90509d9c50505050505050505050505050565b600060e082019050615bb8600083018a6159a0565b8181036020830152615bca8189615a74565b90508181036040830152615bde8188615a74565b9050615bed6060830187615aaa565b615bfa6080830186615aaa565b615c0760a0830185615aaa565b615c1460c0830184615a65565b98975050505050505050565b60006020820190508181036000830152615c3a81846159af565b905092915050565b60006020820190508181036000830152615c5c8184615a0a565b905092915050565b6000602082019050615c796000830184615a65565b92915050565b6000610180820190508181036000830152615c9a818f615a74565b90508181036020830152615cae818e615a74565b90508181036040830152615cc2818d615a74565b90508181036060830152615cd6818c615a74565b9050615ce5608083018b615aaa565b615cf260a083018a615aaa565b615cff60c0830189615aaa565b615d0c60e0830188615aaa565b615d1a610100830187615aaa565b615d28610120830186615aaa565b615d36610140830185615a65565b615d44610160830184615a65565b9d9c50505050505050505050505050565b6000602082019050615d6a6000830184615aaa565b92915050565b6000608082019050615d856000830187615aaa565b8181036020830152615d978186615a74565b90508181036040830152615dab8185615a74565b9050615dba6060830184615aaa565b95945050505050565b6000608082019050615dd86000830187615aaa565b615de56020830186615aaa565b615df26040830185615aaa565b615dff6060830184615aaa565b95945050505050565b6000604051905081810181811067ffffffffffffffff82111715615e2b57600080fd5b8060405250919050565b600067ffffffffffffffff821115615e4c57600080fd5b601f19601f8301169050602081019050919050565b6000602082019050919050565b6000602082019050919050565b600081519050919050565b600081519050919050565b600081519050919050565b6000602082019050919050565b6000602082019050919050565b6000615ec182615ed4565b9050919050565b60008115159050919050565b600073ffffffffffffffffffffffffffffffffffffffff82169050919050565b6000819050919050565b6000615f0982615ed4565b9050919050565b6000819050919050565b82818337600083830152505050565b60005b83811015615f47578082015181840152602081019050615f2c565b83811115615f56576000848401525b50505050565b6000601f19601f830116905091905056fea265627a7a723058200e8bd980f8cfd9eaabccd39e04cdef27854201aea1e0441f2258f809ca7c07a26c6578706572696d656e74616cf50037",
  "source": "//Write your own contracts here. Currently compiles using solc v0.4.15+commit.bbb8e64f.\npragma solidity ^0.5.0;\npragma experimental ABIEncoderV2;\n\n\ncontract P2PTest {\n\n\n  //Global Variables\n  Borrower[] public borrowers; //An array that will hold all of our borrowers \n  Investor[] public investors; //An array that will hold all of our investors\n  Loan[] public loans; //An array that will hold all of our loans \n  LoanContract[] public loancontracts; \n  uint totalNumBorrowers; //Keep track of the total number of borrowers we have \n  uint totalNumInvestors; //Keep track of the total number of investors that we have\n  uint totalNumLoans;  //Keep track of the total number of loans that are created \n  uint borrowerIdCounter; //Keep track of the borrowerIds --> increment everytime we add a new borrower\n  uint investorIdCounter; //Helps create the investorId so that we can keep track of them\n  uint loanIdCounter; //Dynamically assign id in the loan Struct\n  uint loanContractIdCounter; \n\n\n\n  //Mappings \n  mapping (uint => address) public borrowerToOwner; //Lookup borrower address from their id \n  mapping(address => uint) public BorrowerAddress2Id; //Lookup borrower id based on their address\n  mapping (address => Borrower) public borrower; //take an address and get the Borrower struct\n  mapping(address => uint[]) public loansBorrowerHasCreated; //address to list of loan_ids the borrower has created\n  mapping (uint => address) public investorToOwner; // take an id from our investors arrray and get the address of the investor\n  mapping (address => uint) public InvestorAddress2Id; //Lookup investor id based on their address\n  mapping (address => Investor) public investor; //take an address and get the investor struct\n  mapping (uint => address) public loanToOwner; //Lookup loan owner address (the borrower who created the loan) from a loanId\n  mapping(address => uint) public LoanAddrerss2Id; //Lookup loan id from an address\n  mapping(address => Loan) public loan; //take an id and look at the loan struct details\n  mapping(uint => address[]) public investorsOnLoan; //search loan id and see all investors on it\n  mapping(uint => Investor[]) public investorsOnLoan2; \n  mapping(address => uint[]) public loansOnInvestor; //search investor and see all loans they have funded\n  mapping(uint => uint[]) public loanIdToFundingAmounts;//Take a loan id and get the payment amounts (how much investors put in/funded)\n  mapping (address => uint) public investorNumInvestments; //take an investor address and get the number of loans they are funding\n  mapping(uint => address[]) public borrowersOnLoan; \n  mapping(uint => LoanContract[]) public loanContractsOnLoanId; //Query a loan Id and see all loan contracts on it \n\n\n  //events \n  event newBorrower(uint borrowerId, string firstName, string lastName, uint accountBalance); //Capability to listen to emission of new borrrower \n  event newInvestor(uint investorId, string firstName, string lastName, uint accountBalance); \n  event newLoan(uint loanId, uint totalAmount, uint interestRate, uint loanDuration); \n  \n  //Borrower Struct \n  struct Borrower { \n    address borrowerPublicKey;\n    string firstName; \n    string lastName; \n    uint accountBalance; \n    uint numLoans; \n    uint borrowerId; \n    bool EXISTS; \n  }\n\n  //Investor Struct \n  struct Investor {\n    address investorPublicKey; \n    string firstName; \n    string lastName; \n    uint accountBalance; \n    uint numInvestments; \n    uint investorId; \n    bool EXISTS; \n  }\n\n  //Create a new Loan\n  struct Loan { //ToDo: Add 2 arrrrays to the loan to track the investors on it and the amount they funded \n    string shortDescription;\n    string loanDescription;\n    string tag;\n    string startDate; \n    uint loanId; \n    uint loanDuration;  \n    uint totalAmount; \n    uint amountFunded; \n    uint interestRate; \n    uint numFunders;\n    bool EXISTS; \n    bool fundedStatus; //false not funded, true is fully funded \n  }\n\n  struct LoanContract {\n    address borrowerPublicKey; \n    address investorPublicKey; \n    uint originalInvestmentAmount; \n    uint originalInvestmentAmountInvestor;\n    uint currentPaybackAmount; \n    uint interestRate; \n    uint loanTerm; \n    uint loanId; \n    uint loanContractId; \n    string loanStartDate; \n    string shortDescription; \n    string loanDescription;\n  }\n\n  //Create a new borrower \n  function createBorrower(string memory _firstName, string memory _lastName, uint _accountBalance) public {\n    require(isBorrower(msg.sender) == false); //you can only have one borrower profile so we check if the msg.sender has already created one\n    //If the borrower msg.sender does not exist then we create it :)\n    Borrower memory b  = Borrower(msg.sender, _firstName, _lastName, _accountBalance, 0, borrowerIdCounter, true);\n    uint id = borrowers.push(b) - 1;\n    borrowerToOwner[borrowerIdCounter] = msg.sender; \n    BorrowerAddress2Id[msg.sender] = borrowerIdCounter; \n    borrower[msg.sender] = b;\n    totalNumBorrowers++; \n    borrowerIdCounter++; \n    emit newBorrower(b.borrowerId, b.firstName, b.lastName, b.accountBalance); //Emit a new borrower everytime one is created \n  }\n\n  //Create a new Investor \n  function createInvestor(string memory _firstName, string memory _lastName, uint _accountBalance) public {\n    require(isInvestor(msg.sender) == false); //You can only have one investor profile \n    //If the investor does not exist we will create them :)\n    Investor memory i = Investor(msg.sender, _firstName, _lastName, _accountBalance, 0, investorIdCounter, true);\n    uint id = investors.push(i) - 1;\n    investorToOwner[investorIdCounter] = msg.sender;\n    InvestorAddress2Id[msg.sender] = investorIdCounter;\n    investor[msg.sender] = i;\n    totalNumInvestors++;  \n    investorIdCounter++; \n    emit newInvestor(i.investorId, i.firstName, i.lastName, i.accountBalance);\n  }\n\n  function createLoan(string memory _shortDescription, string memory _loanDetails, string memory _tag, string memory _startDate, uint _loanDuration, uint _totalAmount, uint _interestRate) public {\n    //Require a Borrower profile to create a loan then push it to our loans arrat\n    require(isBorrower(msg.sender)); //Only a borrower profile can create a loan\n    Loan memory l = Loan(_shortDescription, _loanDetails, _tag, _startDate, loanIdCounter, _loanDuration, _totalAmount, 0, _interestRate, 0, true,false); //default to 0 for amount funded\n    loans.push(l) - 1;\n    loanToOwner[loanIdCounter] = msg.sender; //id of loan to address of the borrower addrress who created the loan\n    LoanAddrerss2Id[msg.sender] = loanIdCounter;  \n    loan[msg.sender] = l; //the borrower who created the loan\n    loansBorrowerHasCreated[msg.sender].push(loanIdCounter); \n    totalNumLoans++; \n    loanIdCounter++; \n    borrowers[BorrowerAddress2Id[msg.sender]].numLoans++; \n    borrower[msg.sender].numLoans++;\n    emit newLoan(l.loanId, l.totalAmount, l.interestRate, l.loanDuration);\n  }\n\n  function fundLoan(uint _loanId, uint _fundingAmount) external {\n    require(isLoan(_loanId)); //check if loan exists \n    require(isInvestor(msg.sender)); //check if msg.sender is an investor account \n    require(investor[msg.sender].accountBalance >= _fundingAmount); //Make sure investor has enough money for funding the loan\n    require (_fundingAmount <= (loans[_loanId].totalAmount - loans[_loanId].amountFunded )); //make sure amount <= (loan amount - amount funded)\n    require(loan[loanToOwner[_loanId]].fundedStatus == false); //make sure the loan is not already funded \n\n    loan[loanToOwner[_loanId]].amountFunded += _fundingAmount; // increment the amount the loan has been funded\n    loans[_loanId].amountFunded += _fundingAmount; //change the funding amount in the loans structure\n    loan[loanToOwner[_loanId]].numFunders += 1; //increment how many investors are on this loan\n    loans[_loanId].numFunders += 1; //increment how many investors are on this loan\n    if (loan[loanToOwner[_loanId]].amountFunded == loans[_loanId].totalAmount) {\n      loan[loanToOwner[_loanId]].fundedStatus = true; // if the loan is fully funded change the status to true\n      loans[_loanId].fundedStatus = true; //if the loan is fully funded change the status to true\n    }\n    investorsOnLoan[_loanId].push(msg.sender); //add the investor to the list -- for loan can see all investors\n    investorsOnLoan2[_loanId].push(investor[msg.sender]);\n    loansOnInvestor[msg.sender].push(_loanId); //Search investor and see all of their loans\n    \n    investorNumInvestments[msg.sender]++; //Increment the number of loans that have been funded for the investor\n    investor[msg.sender].numInvestments++; //incrementt the number of investments for the investor\n    investors[investor[msg.sender].investorId].numInvestments++; //incrementt the number of investments for the investor\n\n    //Reduce the account Balance by the funding for the investor in both arrays \n    investor[msg.sender].accountBalance -= _fundingAmount; \n    investors[investor[msg.sender].investorId].accountBalance -= _fundingAmount; \n    \n    //Increment Borrower account balance by the funding in both global arrays \n    borrower[loanToOwner[_loanId]].accountBalance += _fundingAmount;\n    borrowers[borrower[loanToOwner[_loanId]].borrowerId].accountBalance += _fundingAmount; \n    borrowersOnLoan[_loanId].push(borrower[loanToOwner[_loanId]].borrowerPublicKey);\n\n    loanIdToFundingAmounts[_loanId].push(_fundingAmount); //keep track of funding amounts on loan\n\n\n    //Create the loan contract \n    uint _paybackwithInterest = interestCalc(2,_fundingAmount,loans[_loanId].interestRate);\n    LoanContract memory lc = LoanContract(borrower[loanToOwner[_loanId]].borrowerPublicKey, msg.sender, _fundingAmount, _paybackwithInterest, _paybackwithInterest, loans[_loanId].interestRate, loans[_loanId].loanDuration, _loanId,loanContractIdCounter, loans[_loanId].startDate,loans[_loanId].shortDescription, loans[_loanId].loanDescription);\n    uint id = loancontracts.push(lc) - 1;\n    loanContractsOnLoanId[_loanId].push(lc);\n    loanContractIdCounter++; \n\n\n    /* \n    address borrowerPublicKey; \n    address investorPublicKey; \n    uint originalInvestmentAmount; \n    uint currentPaybackAmount; \n    uint interestRate; \n    uint loanTerm; \n    uint loanId; \n    uint loanContractId;\n\n    */\n  }\n\n\n  /////// HANDLE FUNDING\n  function changeFundingAmounts(uint _loanId,uint _investorId, uint _fundingAmount) public {\n    //We need to change the funding amount when a loan is paid back\n    uint[]  memory _investorIds = getLoanInvestorsIds(_loanId);\n    //uint[] memory _fundingAmounts = getFundingAmounts(_loanId); \n    uint counter = 0;  \n    for (uint i=1; i<=_investorIds.length; i++) {\n      if (_investorIds[counter] == _investorId) {\n        if (_fundingAmount >= loanIdToFundingAmounts[_loanId][counter]) {\n          loanIdToFundingAmounts[_loanId][counter] = 0; \n        } else {\n        loanIdToFundingAmounts[_loanId][counter] -= _fundingAmount; \n        }\n      }\n      counter++; \n    }\n  }\n\n    function getLoanInvestorsIds(uint _loanId) public view returns (uint[] memory) {\n    //Pass in a loanId and see all investor addresses that are on it \n    uint[] memory _investorsOnThisLoan = new uint[](investorsOnLoan2[_loanId].length);\n    uint counter = 0; \n    for (uint i= 1;  i<= investorsOnLoan2[_loanId].length; i++) {\n      _investorsOnThisLoan[counter]= investorsOnLoan2[_loanId][counter].investorId; \n      counter++;  \n\n    }\n    return _investorsOnThisLoan; \n  }\n\n  function _paybackInvestor(uint _investorId, uint _loanId, uint paybackAmount) public  {\n    //address _investorAddress = investorToOwner[_investorId]; \n    //require(isBorrower(msg.sender)); //check if loan exists \n    require(isLoan(_loanId));\n\n    uint borrower_balance = borrower[msg.sender].accountBalance;\n    require(borrower_balance >= paybackAmount);  \n    \n    investors[_investorId].accountBalance += paybackAmount;\n    investor[investorToOwner[_investorId]].accountBalance += paybackAmount;\n\n    borrower[loanToOwner[_loanId]].accountBalance -= paybackAmount; \n    borrowers[borrower[loanToOwner[_loanId]].borrowerId].accountBalance -= paybackAmount;\n\n    changeFundingAmounts(_loanId,_investorId, paybackAmount); //change how much the investor is owed based on the paybackAmount from the borrower\n\n    //Go to the loan contract (loancontracts) and find the investor and change their payback amount as well\n    LoanContract[] memory lcs = loanContractsOnLoanId[_loanId]; \n    uint counter = 0;\n    for (uint i=1; i<=lcs.length; i++) {\n      if(InvestorAddress2Id[lcs[counter].investorPublicKey] == _investorId) {\n        if (paybackAmount >= loanContractsOnLoanId[_loanId][counter].currentPaybackAmount) {\n          loanContractsOnLoanId[_loanId][counter].currentPaybackAmount = 0; \n          loancontracts[loanContractsOnLoanId[_loanId][counter].loanContractId].currentPaybackAmount = 0; \n          } \n        else {\n          loanContractsOnLoanId[_loanId][counter].currentPaybackAmount -= paybackAmount; \n          loancontracts[loanContractsOnLoanId[_loanId][counter].loanContractId].currentPaybackAmount -= paybackAmount; \n      }\n        counter++; \n      } else {\n        counter++; \n      }\n    }\n\n    }\n\n    function getFundingAmounts(uint _loanId) public view returns (uint[] memory) {\n    uint[] memory loan_amounts = new uint[] (loanIdToFundingAmounts[_loanId].length);\n    uint counter = 0; \n    for (uint i= 1;  i<= loanIdToFundingAmounts[_loanId].length; i++) {\n      loan_amounts[counter]= loanIdToFundingAmounts[_loanId][counter]; \n      counter++;  \n    }\n    return loan_amounts; \n  }\n\n\n\n  \n  /*function getBorrowerNames() public view returns (string[] memory) {\n    //Pass in a loanId and see all investor addresses that are on it \n    string[] memory borrrowerNames = new string[](borrowers.length); \n    uint counter = 0; \n    for (uint i= 1;  i<= borrowers.length; i++) {\n      borrrowerNames[counter]= borrowers[counter].firstName; \n      counter++;  \n    }\n    return borrrowerNames; \n  } */\n\n  function getTotalNumBorrowers() public view returns (uint) {\n    //Allows us to see how many borrowers we have --> we can loop over this range to get all borrower information\n    return totalNumBorrowers;\n  }\n\n  function getTotalNumInvestors() public view returns (uint) { \n    //Allows us to see how many investors we have --> we can loop over this range to get all borrower information\n    return totalNumInvestors; \n  }\n\n  function getTotalNumLoans() public view returns (uint) { \n    return totalNumLoans; \n  }\n\n  function getLoansBorrowerHasCrerated(address _address) public view returns(uint[] memory) {\n    return loansBorrowerHasCreated[_address];\n  }\n\n  function getLoanIdsByInvestor(address _address) public view returns(uint[] memory) {\n    return loansOnInvestor[_address];\n  }\n\n  function getInvestorsByLoanId(uint _loanId) public view returns(address[] memory) {\n    return investorsOnLoan[_loanId];\n  }\n\n  function getFundingAmountsByLoanId(uint _loanId) public view returns(uint[] memory) {\n    return loanIdToFundingAmounts[_loanId];\n  }\n\n  function getBorrowersOnLoan(uint _loanId) public view returns(address[] memory) {\n    return borrowersOnLoan[_loanId];\n  }\n\n\n  function interestCalc(uint decimals, uint totalValue, uint percentage) public view returns (uint) { \n    totalValue = totalValue * 10**decimals;\n    uint AddValue = totalValue * percentage;\n    AddValue = AddValue / 100;\n    totalValue += AddValue;\n    return totalValue = totalValue / 10**decimals;\n  }\n\n  /*function getAllLoanIds() public view returns(uint[] memory ){ \n    uint[] memory loanIds = new uint[](loans.length);\n    uint counter = 0; \n    for (uint i= 1;  i<= loans.length; i++) {\n      loanIds.push(counter);\n      counter++; \n\n    }\n    return loanIds; \n  } */\n\n  function getAllLoanIds() public view returns (uint[] memory) {\n    uint[] memory allids = new uint[] (loans.length);\n    uint counter = 0; \n    for (uint i= 1;  i<= loans.length; i++) {\n      allids[counter]= loans[counter].loanId; \n      counter++;  \n    }\n    return allids; \n  }\n\n  function getLoanContractIdsFromLoanId(uint _loanId) public view returns (uint[] memory) {\n    //This will get us an array of loan contracts on an loan id \n    LoanContract[] memory lcs = loanContractsOnLoanId[_loanId];\n    uint counter = 0;\n    uint[] memory ls_arr = new uint[] (lcs.length); \n    for (uint i=1; i<= lcs.length; i++) {\n      ls_arr[counter] = lcs[counter].loanContractId; \n      counter++; \n    }\n    return ls_arr; \n  }\n\n  function getLoanContractsInvestorHas(address _address) public view returns (uint[] memory) {\n    uint counter = 0; \n    //uint numInvestments = investor[_address].numInvestments; \n    uint[] memory investorcontracts = new uint[](investorNumInvestments[_address]); \n    for (uint i=0; i < loancontracts.length; i++) {\n      if (loancontracts[i].investorPublicKey == _address) {\n        investorcontracts[counter] = loancontracts[i].loanContractId; \n        counter++; \n      } \n    }\n    return investorcontracts;\n  }\n\n  \n  function isBorrower(address account) public view returns (bool) {return borrower[account].EXISTS;}\n  function isInvestor(address account) public view returns (bool) {return investor[account].EXISTS;}\n  function isLoan(uint _id) public view returns (bool) {return loan[loanToOwner[_id]].EXISTS;}\n\n\n\n\n}\n\n\n",
  "sourcePath": "/Users/adamlieberman/Projects/i8n-HIVE/contracts/borrower_test.sol",
  "compiler": {
    "name": "solc",
    "version": "0.5.0+commit.1d4f565a.Emscripten.clang"
  },
  "schemaVersion": "3.0.1",
  "updatedAt": "2021-07-31T21:25:35.973Z",
  "devdoc": {
    "methods": {}
  },
  "userdoc": {
    "methods": {
      "changeFundingAmounts(uint256,uint256,uint256)": {
        "notice": "//// HANDLE FUNDING"
      }
    }
  }
}